{
  "_format": "hh-sol-artifact-1",
  "contractName": "ClaimModule",
  "sourceName": "contracts/core/modules/ClaimModule.sol",
  "abi": [
    {
      "inputs": [],
      "name": "AddressNotWhitelisted",
      "type": "error"
    },
    {
      "inputs": [
        {
          "internalType": "uint256",
          "name": "bountyId",
          "type": "uint256"
        },
        {
          "internalType": "bytes",
          "name": "data",
          "type": "bytes"
        }
      ],
      "name": "init",
      "outputs": [
        {
          "internalType": "bytes",
          "name": "",
          "type": "bytes"
        }
      ],
      "stateMutability": "nonpayable",
      "type": "function"
    },
    {
      "inputs": [
        {
          "internalType": "uint256",
          "name": "bountyId",
          "type": "uint256"
        },
        {
          "internalType": "address",
          "name": "person",
          "type": "address"
        }
      ],
      "name": "isWhitelistedAddress",
      "outputs": [
        {
          "internalType": "bool",
          "name": "",
          "type": "bool"
        }
      ],
      "stateMutability": "view",
      "type": "function"
    },
    {
      "inputs": [
        {
          "internalType": "uint256",
          "name": "bountyId",
          "type": "uint256"
        },
        {
          "internalType": "address",
          "name": "claimee",
          "type": "address"
        },
        {
          "internalType": "bytes",
          "name": "data",
          "type": "bytes"
        }
      ],
      "name": "processClaim",
      "outputs": [],
      "stateMutability": "nonpayable",
      "type": "function"
    },
    {
      "inputs": [
        {
          "internalType": "uint256",
          "name": "bountyId",
          "type": "uint256"
        },
        {
          "internalType": "bytes",
          "name": "data",
          "type": "bytes"
        }
      ],
      "name": "processSubmit",
      "outputs": [],
      "stateMutability": "nonpayable",
      "type": "function"
    }
  ],
  "bytecode": "0x608060405234801561001057600080fd5b506107b4806100206000396000f3fe608060405234801561001057600080fd5b506004361061004c5760003560e01c8063581c4b66146100515780637b601386146100815780639f83137b1461009d578063af3b455b146100cd575b600080fd5b61006b60048036038101906100669190610472565b6100e9565b60405161007891906105ba565b60405180910390f35b61009b6004803603810190610096919061051a565b610150565b005b6100b760048036038101906100b2919061051a565b610155565b6040516100c491906105d5565b60405180910390f35b6100e760048036038101906100e291906104ae565b610286565b005b600080600084815260200190815260200160002060008373ffffffffffffffffffffffffffffffffffffffff1673ffffffffffffffffffffffffffffffffffffffff16815260200190815260200160002060009054906101000a900460ff16905092915050565b505050565b6060600083839050111561023857600083838101906101749190610431565b905060005b815181101561023557600160008088815260200190815260200160002060008484815181106101d1577f4e487b7100000000000000000000000000000000000000000000000000000000600052603260045260246000fd5b602002602001015173ffffffffffffffffffffffffffffffffffffffff1673ffffffffffffffffffffffffffffffffffffffff16815260200190815260200160002060006101000a81548160ff021916908315150217905550806001019050610179565b50505b82828080601f016020809104026020016040519081016040528093929190818152602001838380828437600081840152601f19601f8201169050808301925050505050505090509392505050565b6000151560008086815260200190815260200160002060008573ffffffffffffffffffffffffffffffffffffffff1673ffffffffffffffffffffffffffffffffffffffff16815260200190815260200160002060009054906101000a900460ff1615151415610321576040517fad7acb4700000000000000000000000000000000000000000000000000000000815260040160405180910390fd5b50505050565b600061033a6103358461061c565b6105f7565b9050808382526020820190508285602086028201111561035957600080fd5b60005b85811015610389578161036f8882610393565b84526020840193506020830192505060018101905061035c565b5050509392505050565b6000813590506103a281610750565b92915050565b600082601f8301126103b957600080fd5b81356103c9848260208601610327565b91505092915050565b60008083601f8401126103e457600080fd5b8235905067ffffffffffffffff8111156103fd57600080fd5b60208301915083600182028301111561041557600080fd5b9250929050565b60008135905061042b81610767565b92915050565b60006020828403121561044357600080fd5b600082013567ffffffffffffffff81111561045d57600080fd5b610469848285016103a8565b91505092915050565b6000806040838503121561048557600080fd5b60006104938582860161041c565b92505060206104a485828601610393565b9150509250929050565b600080600080606085870312156104c457600080fd5b60006104d28782880161041c565b94505060206104e387828801610393565b935050604085013567ffffffffffffffff81111561050057600080fd5b61050c878288016103d2565b925092505092959194509250565b60008060006040848603121561052f57600080fd5b600061053d8682870161041c565b935050602084013567ffffffffffffffff81111561055a57600080fd5b610566868287016103d2565b92509250509250925092565b61057b81610676565b82525050565b600061058c82610648565b6105968185610653565b93506105a68185602086016106ac565b6105af8161073f565b840191505092915050565b60006020820190506105cf6000830184610572565b92915050565b600060208201905081810360008301526105ef8184610581565b905092915050565b6000610601610612565b905061060d82826106df565b919050565b6000604051905090565b600067ffffffffffffffff82111561063757610636610710565b5b602082029050602081019050919050565b600081519050919050565b600082825260208201905092915050565b600061066f82610682565b9050919050565b60008115159050919050565b600073ffffffffffffffffffffffffffffffffffffffff82169050919050565b6000819050919050565b60005b838110156106ca5780820151818401526020810190506106af565b838111156106d9576000848401525b50505050565b6106e88261073f565b810181811067ffffffffffffffff8211171561070757610706610710565b5b80604052505050565b7f4e487b7100000000000000000000000000000000000000000000000000000000600052604160045260246000fd5b6000601f19601f8301169050919050565b61075981610664565b811461076457600080fd5b50565b610770816106a2565b811461077b57600080fd5b5056fea2646970667358221220727ece64cd4a081826a8e250d5e168388d3d9e2ebb4b52571208609f28137d2964736f6c63430008040033",
  "linkReferences": {},
  "deployedLinkReferences": {}
}