{
  "_format": "hh-sol-artifact-1",
  "contractName": "CredsHub",
  "sourceName": "contracts/core/CredsHub.sol",
  "abi": [
    {
      "inputs": [],
      "stateMutability": "nonpayable",
      "type": "constructor"
    },
    {
      "inputs": [
        {
          "internalType": "uint256",
          "name": "bountyId",
          "type": "uint256"
        }
      ],
      "name": "claimBounty",
      "outputs": [
        {
          "internalType": "uint256",
          "name": "",
          "type": "uint256"
        }
      ],
      "stateMutability": "nonpayable",
      "type": "function"
    },
    {
      "inputs": [
        {
          "components": [
            {
              "internalType": "address",
              "name": "claimModule",
              "type": "address"
            },
            {
              "internalType": "bytes",
              "name": "claimModuleInitData",
              "type": "bytes"
            },
            {
              "internalType": "string",
              "name": "contentUri",
              "type": "string"
            }
          ],
          "internalType": "struct DataTypes.CreateBountyData",
          "name": "vars",
          "type": "tuple"
        }
      ],
      "name": "createBounty",
      "outputs": [
        {
          "internalType": "uint256",
          "name": "",
          "type": "uint256"
        }
      ],
      "stateMutability": "nonpayable",
      "type": "function"
    },
    {
      "inputs": [
        {
          "internalType": "uint256",
          "name": "bountyId",
          "type": "uint256"
        }
      ],
      "name": "getBounty",
      "outputs": [
        {
          "components": [
            {
              "internalType": "address",
              "name": "bountyNFT",
              "type": "address"
            },
            {
              "internalType": "address",
              "name": "claimModule",
              "type": "address"
            },
            {
              "internalType": "string",
              "name": "contentUri",
              "type": "string"
            }
          ],
          "internalType": "struct DataTypes.Bounty",
          "name": "",
          "type": "tuple"
        }
      ],
      "stateMutability": "view",
      "type": "function"
    },
    {
      "inputs": [
        {
          "internalType": "uint256",
          "name": "bountyId",
          "type": "uint256"
        }
      ],
      "name": "getBountyNFT",
      "outputs": [
        {
          "internalType": "address",
          "name": "",
          "type": "address"
        }
      ],
      "stateMutability": "view",
      "type": "function"
    },
    {
      "inputs": [
        {
          "internalType": "uint256",
          "name": "bountyId",
          "type": "uint256"
        }
      ],
      "name": "getClaimModule",
      "outputs": [
        {
          "internalType": "address",
          "name": "",
          "type": "address"
        }
      ],
      "stateMutability": "view",
      "type": "function"
    },
    {
      "inputs": [
        {
          "internalType": "uint256",
          "name": "bountyId",
          "type": "uint256"
        }
      ],
      "name": "getContentURI",
      "outputs": [
        {
          "internalType": "string",
          "name": "",
          "type": "string"
        }
      ],
      "stateMutability": "view",
      "type": "function"
    },
    {
      "inputs": [],
      "name": "getNumBounties",
      "outputs": [
        {
          "internalType": "uint256",
          "name": "",
          "type": "uint256"
        }
      ],
      "stateMutability": "view",
      "type": "function"
    }
  ],
  "bytecode": "0x608060405234801561001057600080fd5b50610f0f806100206000396000f3fe608060405234801561001057600080fd5b506004361061007d5760003560e01c80637cc535701161005b5780637cc5357014610100578063b7880fee14610130578063ee8c4bbf14610160578063f2a6bc9a146101905761007d565b80630a0693e4146100825780633278ba2f146100b257806344021ad7146100d0575b600080fd5b61009c6004803603810190610097919061089c565b6101c0565b6040516100a99190610ade565b60405180910390f35b6100ba610200565b6040516100c79190610bf0565b60405180910390f35b6100ea60048036038101906100e5919061089c565b61024b565b6040516100f79190610bf0565b60405180910390f35b61011a6004803603810190610115919061089c565b6102e4565b6040516101279190610b45565b60405180910390f35b61014a6004803603810190610145919061089c565b61038c565b6040516101579190610ade565b60405180910390f35b61017a6004803603810190610175919061089c565b6103cc565b6040516101879190610bce565b60405180910390f35b6101aa60048036038101906101a5919061085b565b610537565b6040516101b79190610bf0565b60405180910390f35b60006001600083815260200190815260200160002060000160009054906101000a900473ffffffffffffffffffffffffffffffffffffffff169050919050565b60006102436040518060400160405280600d81526020017f626f756e7479436f756e74657200000000000000000000000000000000000000815250600054610653565b600054905090565b600073__$6c7fcc3a270f1c84ad86b267a1dde96ad0$__636dcf634783333060016040518563ffffffff1660e01b815260040161028b9493929190610c0b565b60206040518083038186803b1580156102a357600080fd5b505af41580156102b7573d6000803e3d6000fd5b505050506040513d601f19601f820116820180604052508101906102db91906108c5565b50819050919050565b606060016000838152602001908152602001600020600201805461030790610e39565b80601f016020809104026020016040519081016040528092919081815260200182805461033390610e39565b80156103805780601f1061035557610100808354040283529160200191610380565b820191906000526020600020905b81548152906001019060200180831161036357829003601f168201915b50505050509050919050565b60006001600083815260200190815260200160002060010160009054906101000a900473ffffffffffffffffffffffffffffffffffffffff169050919050565b6103d46107b4565b600160008381526020019081526020016000206040518060600160405290816000820160009054906101000a900473ffffffffffffffffffffffffffffffffffffffff1673ffffffffffffffffffffffffffffffffffffffff1673ffffffffffffffffffffffffffffffffffffffff1681526020016001820160009054906101000a900473ffffffffffffffffffffffffffffffffffffffff1673ffffffffffffffffffffffffffffffffffffffff1673ffffffffffffffffffffffffffffffffffffffff1681526020016002820180546104ae90610e39565b80601f01602080910402602001604051908101604052809291908181526020018280546104da90610e39565b80156105275780601f106104fc57610100808354040283529160200191610527565b820191906000526020600020905b81548152906001019060200180831161050a57829003601f168201915b5050505050815250509050919050565b60006105ca6040518060400160405280600f81526020017f6372656174696e6720626f756e747900000000000000000000000000000000008152508380604001906105829190610c50565b8080601f016020809104026020016040519081016040528093929190818152602001838380828437600081840152601f19601f820116905080830192505050505050506106ef565b60008060008154600101919050819055905073__$6c7fcc3a270f1c84ad86b267a1dde96ad0$__63e0d0705533858460016040518563ffffffff1660e01b815260040161061a9493929190610af9565b60006040518083038186803b15801561063257600080fd5b505af4158015610646573d6000803e3d6000fd5b5050505080915050919050565b6106eb8282604051602401610669929190610b9e565b6040516020818303038152906040527f9710a9d0000000000000000000000000000000000000000000000000000000007bffffffffffffffffffffffffffffffffffffffffffffffffffffffff19166020820180517bffffffffffffffffffffffffffffffffffffffffffffffffffffffff838183161783525050505061078b565b5050565b6107878282604051602401610705929190610b67565b6040516020818303038152906040527f4b5c4277000000000000000000000000000000000000000000000000000000007bffffffffffffffffffffffffffffffffffffffffffffffffffffffff19166020820180517bffffffffffffffffffffffffffffffffffffffffffffffffffffffff838183161783525050505061078b565b5050565b60008151905060006a636f6e736f6c652e6c6f679050602083016000808483855afa5050505050565b6040518060600160405280600073ffffffffffffffffffffffffffffffffffffffff168152602001600073ffffffffffffffffffffffffffffffffffffffff168152602001606081525090565b60008135905061081081610eab565b92915050565b60006060828403121561082857600080fd5b81905092915050565b60008135905061084081610ec2565b92915050565b60008151905061085581610ec2565b92915050565b60006020828403121561086d57600080fd5b600082013567ffffffffffffffff81111561088757600080fd5b61089384828501610816565b91505092915050565b6000602082840312156108ae57600080fd5b60006108bc84828501610831565b91505092915050565b6000602082840312156108d757600080fd5b60006108e584828501610846565b91505092915050565b6108f781610dbb565b82525050565b61090681610dbb565b82525050565b61091581610dbb565b82525050565b61092481610dbb565b82525050565b60006109368385610cb2565b9350610943838584610df7565b61094c83610e9a565b840190509392505050565b8082525050565b600061096a8385610ce5565b9350610977838584610df7565b61098083610e9a565b840190509392505050565b600061099682610ca7565b6109a08185610cc3565b93506109b0818560208601610e06565b6109b981610e9a565b840191505092915050565b60006109cf82610ca7565b6109d98185610cd4565b93506109e9818560208601610e06565b6109f281610e9a565b840191505092915050565b6000606083016000830151610a1560008601826108ee565b506020830151610a2860208601826108ee565b5060408301518482036040860152610a40828261098b565b9150508091505092915050565b600060608301610a606000840184610cf6565b610a6d600086018261091b565b50610a7b6020840184610d0d565b8583036020870152610a8e83828461092a565b92505050610a9f6040840184610d64565b8583036040870152610ab283828461095e565b925050508091505092915050565b610ac981610ded565b82525050565b610ad881610ded565b82525050565b6000602082019050610af360008301846108fd565b92915050565b6000608082019050610b0e600083018761090c565b8181036020830152610b208186610a4d565b9050610b2f6040830185610acf565b610b3c6060830184610957565b95945050505050565b60006020820190508181036000830152610b5f81846109c4565b905092915050565b60006040820190508181036000830152610b8181856109c4565b90508181036020830152610b9581846109c4565b90509392505050565b60006040820190508181036000830152610bb881856109c4565b9050610bc76020830184610ac0565b9392505050565b60006020820190508181036000830152610be881846109fd565b905092915050565b6000602082019050610c056000830184610ac0565b92915050565b6000608082019050610c206000830187610acf565b610c2d602083018661090c565b610c3a604083018561090c565b610c476060830184610957565b95945050505050565b60008083356001602003843603038112610c6957600080fd5b80840192508235915067ffffffffffffffff821115610c8757600080fd5b602083019250600182023603831315610c9f57600080fd5b509250929050565b600081519050919050565b600082825260208201905092915050565b600082825260208201905092915050565b600082825260208201905092915050565b600082825260208201905092915050565b6000610d056020840184610801565b905092915050565b60008083356001602003843603038112610d2657600080fd5b83810192508235915060208301925067ffffffffffffffff821115610d4a57600080fd5b600182023603841315610d5c57600080fd5b509250929050565b60008083356001602003843603038112610d7d57600080fd5b83810192508235915060208301925067ffffffffffffffff821115610da157600080fd5b600182023603841315610db357600080fd5b509250929050565b6000610dc682610dcd565b9050919050565b600073ffffffffffffffffffffffffffffffffffffffff82169050919050565b6000819050919050565b82818337600083830152505050565b60005b83811015610e24578082015181840152602081019050610e09565b83811115610e33576000848401525b50505050565b60006002820490506001821680610e5157607f821691505b60208210811415610e6557610e64610e6b565b5b50919050565b7f4e487b7100000000000000000000000000000000000000000000000000000000600052602260045260246000fd5b6000601f19601f8301169050919050565b610eb481610dbb565b8114610ebf57600080fd5b50565b610ecb81610ded565b8114610ed657600080fd5b5056fea26469706673582212208ed2298dc92c4410ca366602b7c0ea23f506396d92a3d8bef470b74a0eb62c3064736f6c63430008040033",
  "linkReferences": {
    "contracts/libraries/BountyLogic.sol": {
      "BountyLogic": [
        {
          "length": 20,
          "start": 623
        },
        {
          "length": 20,
          "start": 1534
        }
      ]
    }
  },
  "deployedLinkReferences": {
    "contracts/libraries/BountyLogic.sol": {
      "BountyLogic": [
        {
          "length": 20,
          "start": 591
        },
        {
          "length": 20,
          "start": 1502
        }
      ]
    }
  }
}