{
  "_format": "hh-sol-artifact-1",
  "contractName": "SurveyHub",
  "sourceName": "contracts/SurveyHub.sol",
  "abi": [
    {
      "inputs": [
        {
          "internalType": "address",
          "name": "vrfAddress",
          "type": "address"
        }
      ],
      "stateMutability": "nonpayable",
      "type": "constructor"
    },
    {
      "anonymous": false,
      "inputs": [
        {
          "indexed": false,
          "internalType": "uint256",
          "name": "surveyId",
          "type": "uint256"
        },
        {
          "indexed": false,
          "internalType": "address",
          "name": "payee",
          "type": "address"
        }
      ],
      "name": "PaymentFulfilled",
      "type": "event"
    },
    {
      "anonymous": false,
      "inputs": [
        {
          "indexed": false,
          "internalType": "uint256",
          "name": "surveyId",
          "type": "uint256"
        },
        {
          "indexed": false,
          "internalType": "address",
          "name": "responder",
          "type": "address"
        },
        {
          "indexed": false,
          "internalType": "uint256",
          "name": "responseReceiptId",
          "type": "uint256"
        }
      ],
      "name": "ResponseAdded",
      "type": "event"
    },
    {
      "anonymous": false,
      "inputs": [
        {
          "indexed": true,
          "internalType": "bytes32",
          "name": "role",
          "type": "bytes32"
        },
        {
          "indexed": true,
          "internalType": "bytes32",
          "name": "previousAdminRole",
          "type": "bytes32"
        },
        {
          "indexed": true,
          "internalType": "bytes32",
          "name": "newAdminRole",
          "type": "bytes32"
        }
      ],
      "name": "RoleAdminChanged",
      "type": "event"
    },
    {
      "anonymous": false,
      "inputs": [
        {
          "indexed": true,
          "internalType": "bytes32",
          "name": "role",
          "type": "bytes32"
        },
        {
          "indexed": true,
          "internalType": "address",
          "name": "account",
          "type": "address"
        },
        {
          "indexed": true,
          "internalType": "address",
          "name": "sender",
          "type": "address"
        }
      ],
      "name": "RoleGranted",
      "type": "event"
    },
    {
      "anonymous": false,
      "inputs": [
        {
          "indexed": true,
          "internalType": "bytes32",
          "name": "role",
          "type": "bytes32"
        },
        {
          "indexed": true,
          "internalType": "address",
          "name": "account",
          "type": "address"
        },
        {
          "indexed": true,
          "internalType": "address",
          "name": "sender",
          "type": "address"
        }
      ],
      "name": "RoleRevoked",
      "type": "event"
    },
    {
      "anonymous": false,
      "inputs": [
        {
          "indexed": false,
          "internalType": "uint256",
          "name": "surveyId",
          "type": "uint256"
        },
        {
          "indexed": false,
          "internalType": "address",
          "name": "owner",
          "type": "address"
        }
      ],
      "name": "SurveyCreated",
      "type": "event"
    },
    {
      "inputs": [],
      "name": "DEFAULT_ADMIN_ROLE",
      "outputs": [
        {
          "internalType": "bytes32",
          "name": "",
          "type": "bytes32"
        }
      ],
      "stateMutability": "view",
      "type": "function"
    },
    {
      "inputs": [],
      "name": "RANDOM_NUMBER_GENERATOR_ROLE",
      "outputs": [
        {
          "internalType": "bytes32",
          "name": "",
          "type": "bytes32"
        }
      ],
      "stateMutability": "view",
      "type": "function"
    },
    {
      "inputs": [],
      "name": "RESPONSE_VALIDATOR_ROLE",
      "outputs": [
        {
          "internalType": "bytes32",
          "name": "",
          "type": "bytes32"
        }
      ],
      "stateMutability": "view",
      "type": "function"
    },
    {
      "inputs": [
        {
          "internalType": "uint256",
          "name": "surveyId",
          "type": "uint256"
        },
        {
          "internalType": "address",
          "name": "responder",
          "type": "address"
        }
      ],
      "name": "addResponse",
      "outputs": [],
      "stateMutability": "nonpayable",
      "type": "function"
    },
    {
      "inputs": [
        {
          "internalType": "uint256",
          "name": "surveyId",
          "type": "uint256"
        }
      ],
      "name": "conditionInfo",
      "outputs": [
        {
          "components": [
            {
              "internalType": "uint32",
              "name": "timestamp",
              "type": "uint32"
            },
            {
              "internalType": "uint32",
              "name": "minTotalSupply",
              "type": "uint32"
            }
          ],
          "internalType": "struct SurveyEscrow.Condition",
          "name": "",
          "type": "tuple"
        }
      ],
      "stateMutability": "view",
      "type": "function"
    },
    {
      "inputs": [
        {
          "internalType": "uint8",
          "name": "distributionType",
          "type": "uint8"
        },
        {
          "internalType": "uint256",
          "name": "amountPerResponse",
          "type": "uint256"
        },
        {
          "internalType": "uint32",
          "name": "timestamp",
          "type": "uint32"
        },
        {
          "internalType": "uint32",
          "name": "minTotalSupply",
          "type": "uint32"
        }
      ],
      "name": "createSurveyWithEther",
      "outputs": [],
      "stateMutability": "payable",
      "type": "function"
    },
    {
      "inputs": [
        {
          "internalType": "uint8",
          "name": "distributionType",
          "type": "uint8"
        },
        {
          "internalType": "address",
          "name": "tokenAddress",
          "type": "address"
        },
        {
          "internalType": "uint256",
          "name": "amountPerResponse",
          "type": "uint256"
        },
        {
          "internalType": "uint32",
          "name": "timestamp",
          "type": "uint32"
        },
        {
          "internalType": "uint32",
          "name": "minTotalSupply",
          "type": "uint32"
        },
        {
          "internalType": "uint256",
          "name": "totalAmount",
          "type": "uint256"
        }
      ],
      "name": "createSurveyWithToken",
      "outputs": [],
      "stateMutability": "nonpayable",
      "type": "function"
    },
    {
      "inputs": [
        {
          "internalType": "uint256",
          "name": "surveyId",
          "type": "uint256"
        }
      ],
      "name": "distributionInfo",
      "outputs": [
        {
          "components": [
            {
              "internalType": "uint8",
              "name": "distributionType",
              "type": "uint8"
            },
            {
              "internalType": "address",
              "name": "tokenAddress",
              "type": "address"
            },
            {
              "internalType": "uint256",
              "name": "amountPerResponse",
              "type": "uint256"
            },
            {
              "internalType": "uint256",
              "name": "requestId",
              "type": "uint256"
            },
            {
              "internalType": "uint256",
              "name": "supplySnapshot",
              "type": "uint256"
            }
          ],
          "internalType": "struct SurveyEscrow.Distribution",
          "name": "",
          "type": "tuple"
        }
      ],
      "stateMutability": "view",
      "type": "function"
    },
    {
      "inputs": [
        {
          "internalType": "uint256",
          "name": "surveyId",
          "type": "uint256"
        }
      ],
      "name": "escrowBalance",
      "outputs": [
        {
          "internalType": "uint256",
          "name": "",
          "type": "uint256"
        }
      ],
      "stateMutability": "view",
      "type": "function"
    },
    {
      "inputs": [
        {
          "internalType": "uint256",
          "name": "surveyId",
          "type": "uint256"
        }
      ],
      "name": "findLotteryWinner",
      "outputs": [
        {
          "internalType": "address",
          "name": "",
          "type": "address"
        }
      ],
      "stateMutability": "view",
      "type": "function"
    },
    {
      "inputs": [
        {
          "internalType": "uint256",
          "name": "surveyId",
          "type": "uint256"
        },
        {
          "internalType": "address",
          "name": "responder",
          "type": "address"
        }
      ],
      "name": "getPaidEther",
      "outputs": [],
      "stateMutability": "nonpayable",
      "type": "function"
    },
    {
      "inputs": [
        {
          "internalType": "uint256",
          "name": "surveyId",
          "type": "uint256"
        },
        {
          "internalType": "address",
          "name": "responder",
          "type": "address"
        }
      ],
      "name": "getPaidToken",
      "outputs": [],
      "stateMutability": "nonpayable",
      "type": "function"
    },
    {
      "inputs": [
        {
          "internalType": "bytes32",
          "name": "role",
          "type": "bytes32"
        }
      ],
      "name": "getRoleAdmin",
      "outputs": [
        {
          "internalType": "bytes32",
          "name": "",
          "type": "bytes32"
        }
      ],
      "stateMutability": "view",
      "type": "function"
    },
    {
      "inputs": [
        {
          "internalType": "bytes32",
          "name": "role",
          "type": "bytes32"
        },
        {
          "internalType": "address",
          "name": "account",
          "type": "address"
        }
      ],
      "name": "grantRole",
      "outputs": [],
      "stateMutability": "nonpayable",
      "type": "function"
    },
    {
      "inputs": [
        {
          "internalType": "uint256",
          "name": "surveyId",
          "type": "uint256"
        },
        {
          "internalType": "address",
          "name": "responder",
          "type": "address"
        }
      ],
      "name": "hasReceivedPayment",
      "outputs": [
        {
          "internalType": "bool",
          "name": "",
          "type": "bool"
        }
      ],
      "stateMutability": "view",
      "type": "function"
    },
    {
      "inputs": [
        {
          "internalType": "uint256",
          "name": "surveyId",
          "type": "uint256"
        },
        {
          "internalType": "address",
          "name": "responder",
          "type": "address"
        }
      ],
      "name": "hasResponded",
      "outputs": [
        {
          "internalType": "bool",
          "name": "",
          "type": "bool"
        }
      ],
      "stateMutability": "view",
      "type": "function"
    },
    {
      "inputs": [
        {
          "internalType": "bytes32",
          "name": "role",
          "type": "bytes32"
        },
        {
          "internalType": "address",
          "name": "account",
          "type": "address"
        }
      ],
      "name": "hasRole",
      "outputs": [
        {
          "internalType": "bool",
          "name": "",
          "type": "bool"
        }
      ],
      "stateMutability": "view",
      "type": "function"
    },
    {
      "inputs": [
        {
          "internalType": "uint256",
          "name": "surveyId",
          "type": "uint256"
        },
        {
          "internalType": "address",
          "name": "responder",
          "type": "address"
        }
      ],
      "name": "oneClickResponseAndEarnEther",
      "outputs": [],
      "stateMutability": "nonpayable",
      "type": "function"
    },
    {
      "inputs": [
        {
          "internalType": "uint256",
          "name": "surveyId",
          "type": "uint256"
        },
        {
          "internalType": "address",
          "name": "responder",
          "type": "address"
        }
      ],
      "name": "oneClickResponseAndEarnToken",
      "outputs": [],
      "stateMutability": "nonpayable",
      "type": "function"
    },
    {
      "inputs": [
        {
          "internalType": "uint256",
          "name": "surveyId",
          "type": "uint256"
        }
      ],
      "name": "paymentToken",
      "outputs": [
        {
          "internalType": "address",
          "name": "",
          "type": "address"
        }
      ],
      "stateMutability": "view",
      "type": "function"
    },
    {
      "inputs": [
        {
          "internalType": "bytes32",
          "name": "role",
          "type": "bytes32"
        },
        {
          "internalType": "address",
          "name": "account",
          "type": "address"
        }
      ],
      "name": "renounceRole",
      "outputs": [],
      "stateMutability": "nonpayable",
      "type": "function"
    },
    {
      "inputs": [
        {
          "internalType": "uint256",
          "name": "surveyId",
          "type": "uint256"
        }
      ],
      "name": "responseCount",
      "outputs": [
        {
          "internalType": "uint256",
          "name": "",
          "type": "uint256"
        }
      ],
      "stateMutability": "view",
      "type": "function"
    },
    {
      "inputs": [
        {
          "internalType": "bytes32",
          "name": "role",
          "type": "bytes32"
        },
        {
          "internalType": "address",
          "name": "account",
          "type": "address"
        }
      ],
      "name": "revokeRole",
      "outputs": [],
      "stateMutability": "nonpayable",
      "type": "function"
    },
    {
      "inputs": [
        {
          "internalType": "bytes4",
          "name": "interfaceId",
          "type": "bytes4"
        }
      ],
      "name": "supportsInterface",
      "outputs": [
        {
          "internalType": "bool",
          "name": "",
          "type": "bool"
        }
      ],
      "stateMutability": "view",
      "type": "function"
    },
    {
      "inputs": [],
      "name": "surveyCount",
      "outputs": [
        {
          "internalType": "uint256",
          "name": "",
          "type": "uint256"
        }
      ],
      "stateMutability": "view",
      "type": "function"
    },
    {
      "inputs": [
        {
          "internalType": "uint256",
          "name": "",
          "type": "uint256"
        }
      ],
      "name": "surveys",
      "outputs": [
        {
          "internalType": "contract SurveyEscrow",
          "name": "escrow",
          "type": "address"
        },
        {
          "internalType": "contract Survey",
          "name": "survey",
          "type": "address"
        }
      ],
      "stateMutability": "view",
      "type": "function"
    },
    {
      "inputs": [
        {
          "internalType": "uint256",
          "name": "surveyId",
          "type": "uint256"
        }
      ],
      "name": "triggerRandomNumberGenerator",
      "outputs": [],
      "stateMutability": "nonpayable",
      "type": "function"
    }
  ],
  "bytecode": "0x60806040523480156200001157600080fd5b506040516200520f3803806200520f83398101604081905262000034916200014f565b600480546001600160a01b0319166001600160a01b0383161790556200007b7fda003266ecd82a735c2f614094c4416068ebf78ecedafbd9f4c44af4c6775c0233620000ae565b620000a77fcb086a53232cc32cbaaa7baa97227c8e83ac857fc213c87ec9ddf56e6157610033620000ae565b5062000181565b6000828152602081815260408083206001600160a01b038516845290915290205460ff166200014b576000828152602081815260408083206001600160a01b03851684529091529020805460ff191660011790556200010a3390565b6001600160a01b0316816001600160a01b0316837f2f8788117e7eff1d82e926ec794901d17c78024a50270940304540a733656f0d60405160405180910390a45b5050565b6000602082840312156200016257600080fd5b81516001600160a01b03811681146200017a57600080fd5b9392505050565b61507e80620001916000396000f3fe608060405260043610620001be5760003560e01c80634f10c6f011620000ff578063b028a1371162000095578063d547741f116200006c578063d547741f14620005fa578063e804f4c0146200061f578063f447d10c1462000636578063f9dbed52146200065b57600080fd5b8063b028a137146200057a578063bb099ee3146200059f578063d159bbb714620005c457600080fd5b806391d1485411620000d657806391d1485414620004cf5780639f58242114620004f4578063a217fddf146200053e578063ae4f9783146200055557600080fd5b80634f10c6f0146200044d57806386e68b9014620004645780638efaa4a714620004aa57600080fd5b8063248a9ca311620001755780632f2ff15d116200014c5780632f2ff15d14620003b957806336568abe14620003de57806342d0922014620004035780634b96aebd146200042857600080fd5b8063248a9ca314620002f1578063287d3d3614620003255780632b6063a3146200034a57600080fd5b806301ffc9a714620001c35780630ced345e14620001fd5780630e101b6014620002245780631276d26a14620002625780631a48f751146200028757806321ff82cb14620002bb575b600080fd5b348015620001d057600080fd5b50620001e8620001e236600462001d23565b62000680565b60405190151581526020015b60405180910390f35b3480156200020a57600080fd5b50620002226200021c36600462001cf0565b620006b8565b005b3480156200023157600080fd5b50620002496200024336600462001cd6565b62000784565b6040516001600160a01b039091168152602001620001f4565b3480156200026f57600080fd5b50620002226200028136600462001cd6565b6200083f565b3480156200029457600080fd5b50620002ac620002a636600462001cd6565b62000c03565b604051908152602001620001f4565b348015620002c857600080fd5b50620002ac7fcb086a53232cc32cbaaa7baa97227c8e83ac857fc213c87ec9ddf56e6157610081565b348015620002fe57600080fd5b50620002ac6200031036600462001cd6565b60009081526020819052604090206001015490565b3480156200033257600080fd5b50620002226200034436600462001cf0565b62000ca8565b3480156200035757600080fd5b506200036f6200036936600462001cd6565b62000e1e565b604051620001f49190815160ff1681526020808301516001600160a01b03169082015260408083015190820152606080830151908201526080918201519181019190915260a00190565b348015620003c657600080fd5b5062000222620003d836600462001cf0565b62000f0c565b348015620003eb57600080fd5b5062000222620003fd36600462001cf0565b62000f3a565b3480156200041057600080fd5b50620002226200042236600462001cf0565b62000fbc565b3480156200043557600080fd5b50620002226200044736600462001cf0565b62000fd4565b620002226200045e36600462001eeb565b62000fec565b3480156200047157600080fd5b50620004896200048336600462001cd6565b620010b5565b604080516001600160a01b03938416815292909116602083015201620001f4565b348015620004b757600080fd5b5062000249620004c936600462001cd6565b620010ef565b348015620004dc57600080fd5b50620001e8620004ee36600462001cf0565b62001191565b3480156200050157600080fd5b50620005196200051336600462001cd6565b620011ba565b60408051825163ffffffff9081168252602093840151169281019290925201620001f4565b3480156200054b57600080fd5b50620002ac600081565b3480156200056257600080fd5b50620001e86200057436600462001cf0565b62001270565b3480156200058757600080fd5b50620002226200059936600462001cf0565b6200131e565b348015620005ac57600080fd5b50620002ac620005be36600462001cd6565b62001375565b348015620005d157600080fd5b50620002ac7fda003266ecd82a735c2f614094c4416068ebf78ecedafbd9f4c44af4c6775c0281565b3480156200060757600080fd5b50620002226200061936600462001cf0565b62001525565b3480156200062c57600080fd5b50600154620002ac565b3480156200064357600080fd5b50620002226200065536600462001e72565b6200154e565b3480156200066857600080fd5b50620001e86200067a36600462001cf0565b62001653565b60006001600160e01b03198216637965db0b60e01b1480620006b257506301ffc9a760e01b6001600160e01b03198316145b92915050565b60018281548110620006ce57620006ce6200210a565b6000918252602090912060029091020154604051638947606960e01b81526001600160a01b038381166004830152909116906389476069906024015b600060405180830381600087803b1580156200072557600080fd5b505af11580156200073a573d6000803e3d6000fd5b5050604080518581526001600160a01b03851660208201527fd761025689f577277c678a5aa9dbe6ed65da45e0941691cfba6a02e7caebd3fb935001905060405180910390a15050565b6000600182815481106200079c576200079c6200210a565b906000526020600020906002020160000160009054906101000a90046001600160a01b03166001600160a01b0316631cced51b6040518163ffffffff1660e01b815260040160a06040518083038186803b158015620007fa57600080fd5b505afa1580156200080f573d6000803e3d6000fd5b505050506040513d601f19601f8201168201806040525081019062000835919062001dc2565b6020015192915050565b7fcb086a53232cc32cbaaa7baa97227c8e83ac857fc213c87ec9ddf56e615761006200086b8162001706565b600154821115620008bb5760405162461bcd60e51b815260206004820152601560248201527414dd5c9d995e48191bd95cc81b9bdd08195e1a5cdd605a1b60448201526064015b60405180910390fd5b60018281548110620008d157620008d16200210a565b600091825260209182902060029091020154604080516356f0bb3760e01b815290516001600160a01b03909216926356f0bb3792600480840193829003018186803b1580156200092057600080fd5b505afa15801562000935573d6000803e3d6000fd5b505050506040513d601f19601f820116820180604052508101906200095b919062001cb2565b620009a95760405162461bcd60e51b815260206004820152601760248201527f537572766579206e6f74207965742066696e69736865640000000000000000006044820152606401620008b2565b600060018381548110620009c157620009c16200210a565b906000526020600020906002020160000160009054906101000a90046001600160a01b03166001600160a01b0316631cced51b6040518163ffffffff1660e01b815260040160a06040518083038186803b15801562000a1f57600080fd5b505afa15801562000a34573d6000803e3d6000fd5b505050506040513d601f19601f8201168201806040525081019062000a5a919062001dc2565b805190915060ff161562000ab15760405162461bcd60e51b815260206004820152601960248201527f4f6e6c79206c6f747465727920646973747269627574696f6e000000000000006044820152606401620008b2565b60608101511562000af95760405162461bcd60e51b8152602060048201526011602482015270105b1c9958591e481d1c9a59d9d95c9959607a1b6044820152606401620008b2565b6001838154811062000b0f5762000b0f6200210a565b600091825260209091206002909102015460048054604051632f215ddf60e21b81529182018690526001600160a01b039283169263ffbae7049291169063bc85777c90602401602060405180830381600087803b15801562000b7057600080fd5b505af115801562000b85573d6000803e3d6000fd5b505050506040513d601f19601f8201168201806040525081019062000bab919062001e58565b6040518263ffffffff1660e01b815260040162000bca91815260200190565b600060405180830381600087803b15801562000be557600080fd5b505af115801562000bfa573d6000803e3d6000fd5b50505050505050565b60006001828154811062000c1b5762000c1b6200210a565b600091825260209182902060016002909202010154604080516318160ddd60e01b815290516001600160a01b03909216926318160ddd92600480840193829003018186803b15801562000c6d57600080fd5b505afa15801562000c82573d6000803e3d6000fd5b505050506040513d601f19601f82011682018060405250810190620006b2919062001e58565b7fda003266ecd82a735c2f614094c4416068ebf78ecedafbd9f4c44af4c6775c0262000cd48162001706565b60015483111562000d205760405162461bcd60e51b815260206004820152601560248201527414dd5c9d995e48191bd95cc81b9bdd08195e1a5cdd605a1b6044820152606401620008b2565b60006001848154811062000d385762000d386200210a565b60009182526020909120600290910201600101546040516340d097c360e01b81526001600160a01b038581166004830152909116906340d097c390602401602060405180830381600087803b15801562000d9157600080fd5b505af115801562000da6573d6000803e3d6000fd5b505050506040513d601f19601f8201168201806040525081019062000dcc919062001e58565b604080518681526001600160a01b03861660208201529081018290529091507f5a2fc3e61dcdbaee6439607cfb1f6f04482281f20bf43ab54cb1294f5eb28f679060600160405180910390a150505050565b62000e5d6040518060a00160405280600060ff16815260200160006001600160a01b031681526020016000815260200160008152602001600081525090565b6001828154811062000e735762000e736200210a565b906000526020600020906002020160000160009054906101000a90046001600160a01b03166001600160a01b0316631cced51b6040518163ffffffff1660e01b815260040160a06040518083038186803b15801562000ed157600080fd5b505afa15801562000ee6573d6000803e3d6000fd5b505050506040513d601f19601f82011682018060405250810190620006b2919062001dc2565b60008281526020819052604090206001015462000f298162001706565b62000f35838362001715565b505050565b6001600160a01b038116331462000fac5760405162461bcd60e51b815260206004820152602f60248201527f416363657373436f6e74726f6c3a2063616e206f6e6c792072656e6f756e636560448201526e103937b632b9903337b91039b2b63360891b6064820152608401620008b2565b62000fb882826200179d565b5050565b62000fc8828262000ca8565b62000fb882826200131e565b62000fe0828262000ca8565b62000fb88282620006b8565b348311156200100f5760405162461bcd60e51b8152600401620008b29062001ff3565b6200101f84600085858562001805565b60018054620010309082906200208d565b815481106200104357620010436200210a565b6000918252602082206002909102015460408051630d0e30db60e41b815290516001600160a01b039092169263d0e30db0923492600480820193929182900301818588803b1580156200109557600080fd5b505af1158015620010aa573d6000803e3d6000fd5b505050505050505050565b60018181548110620010c657600080fd5b6000918252602090912060029091020180546001909101546001600160a01b0391821692501682565b6000600182815481106200110757620011076200210a565b60009182526020918290206002909102015460408051638e71decb60e01b815290516001600160a01b0390921692638e71decb92600480840193829003018186803b1580156200115657600080fd5b505afa1580156200116b573d6000803e3d6000fd5b505050506040513d601f19601f82011682018060405250810190620006b2919062001c92565b6000918252602082815260408084206001600160a01b0393909316845291905290205460ff1690565b604080518082019091526000808252602082015260018281548110620011e457620011e46200210a565b600091825260209091206002909102015460408051630d0175d760e31b815281516001600160a01b039093169263680baeb892600480840193919291829003018186803b1580156200123557600080fd5b505afa1580156200124a573d6000803e3d6000fd5b505050506040513d601f19601f82011682018060405250810190620006b2919062001d4f565b6000600183815481106200128857620012886200210a565b60009182526020909120600290910201546040516322052d0760e01b81526001600160a01b038481166004830152909116906322052d079060240160206040518083038186803b158015620012dc57600080fd5b505afa158015620012f1573d6000803e3d6000fd5b505050506040513d601f19601f8201168201806040525081019062001317919062001cb2565b9392505050565b600182815481106200133457620013346200210a565b600091825260209091206002909102015460405163af933b5760e01b81526001600160a01b0383811660048301529091169063af933b57906024016200070a565b600080600183815481106200138e576200138e6200210a565b906000526020600020906002020160000160009054906101000a90046001600160a01b03166001600160a01b0316631cced51b6040518163ffffffff1660e01b815260040160a06040518083038186803b158015620013ec57600080fd5b505afa15801562001401573d6000803e3d6000fd5b505050506040513d601f19601f8201168201806040525081019062001427919062001dc2565b6020015190506001600160a01b0381166200147457600183815481106200145257620014526200210a565b60009182526020909120600290910201546001600160a01b0316319392505050565b806001600160a01b03166370a08231600185815481106200149957620014996200210a565b600091825260209091206002909102015460405160e083901b6001600160e01b03191681526001600160a01b03909116600482015260240160206040518083038186803b158015620014ea57600080fd5b505afa158015620014ff573d6000803e3d6000fd5b505050506040513d601f19601f8201168201806040525081019062001317919062001e58565b600082815260208190526040902060010154620015428162001706565b62000f3583836200179d565b80841115620015715760405162461bcd60e51b8152600401620008b29062001ff3565b62001580868686868662001805565b846001600160a01b03166323b872dd336001808080549050620015a491906200208d565b81548110620015b757620015b76200210a565b600091825260209091206002909102015460405160e084901b6001600160e01b03191681526001600160a01b0392831660048201529116602482015260448101849052606401602060405180830381600087803b1580156200161857600080fd5b505af11580156200162d573d6000803e3d6000fd5b505050506040513d601f19601f8201168201806040525081019062000bfa919062001cb2565b600080600184815481106200166c576200166c6200210a565b60009182526020909120600290910201600101546040516370a0823160e01b81526001600160a01b038581166004830152909116906370a082319060240160206040518083038186803b158015620016c357600080fd5b505afa158015620016d8573d6000803e3d6000fd5b505050506040513d601f19601f82011682018060405250810190620016fe919062001e58565b119392505050565b62001712813362001a45565b50565b62001721828262001191565b62000fb8576000828152602081815260408083206001600160a01b03851684529091529020805460ff19166001179055620017593390565b6001600160a01b0316816001600160a01b0316837f2f8788117e7eff1d82e926ec794901d17c78024a50270940304540a733656f0d60405160405180910390a45050565b620017a9828262001191565b1562000fb8576000828152602081815260408083206001600160a01b0385168085529252808320805460ff1916905551339285917ff6391f5c32d9c69d2a47ea670b442974b53935d1edc7fd64eb21e047a839171b9190a45050565b60ff851615806200181957508460ff166001145b620018675760405162461bcd60e51b815260206004820181905260248201527f446973747269627574696f6e2074797065206d7573742062652030206f7220316044820152606401620008b2565b6000604051620018779062001c76565b604051809103906000f08015801562001894573d6000803e3d6000fd5b509050600060405180604001604052808389888a8989600460009054906101000a90046001600160a01b0316604051620018ce9062001c84565b6001600160a01b03978816815260ff90961660208701526040860194909452918516606085015263ffffffff90811660808501521660a08301529190911660c082015260e001604051809103906000f08015801562001931573d6000803e3d6000fd5b506001600160a01b039081168252848116602092830152600180548082018255600082815285517fb10e2d527612073b26eecdfd717e6a320cf44b4afac2b0732d9fcbe2b7fa0cf6600293840290810180546001600160a01b0319908116938816939093179055878701517fb10e2d527612073b26eecdfd717e6a320cf44b4afac2b0732d9fcbe2b7fa0cf79091018054831691909616179094558254815290845260408082208054339516851790558382526003855280822083548154808601835591845292869020019190915590548151908152928301919091529192507f9158c4b8b7fff567a0a975ca3187331e08a50d8f2a1f04e986ac1e6e86e8212c910160405180910390a150505050505050565b62001a51828262001191565b62000fb85762001a618162001aa9565b62001a6e83602062001abc565b60405160200162001a8192919062001f45565b60408051601f198184030181529082905262461bcd60e51b8252620008b29160040162001fbe565b6060620006b26001600160a01b03831660145b6060600062001acd8360026200206b565b62001ada90600262002050565b67ffffffffffffffff81111562001af55762001af562002120565b6040519080825280601f01601f19166020018201604052801562001b20576020820181803683370190505b509050600360fc1b8160008151811062001b3e5762001b3e6200210a565b60200101906001600160f81b031916908160001a905350600f60fb1b8160018151811062001b705762001b706200210a565b60200101906001600160f81b031916908160001a905350600062001b968460026200206b565b62001ba390600162002050565b90505b600181111562001c25576f181899199a1a9b1b9c1cb0b131b232b360811b85600f166010811062001bdb5762001bdb6200210a565b1a60f81b82828151811062001bf45762001bf46200210a565b60200101906001600160f81b031916908160001a90535060049490941c9362001c1d81620020da565b905062001ba6565b508315620013175760405162461bcd60e51b815260206004820181905260248201527f537472696e67733a20686578206c656e67746820696e73756666696369656e746044820152606401620008b2565b611d09806200217083390190565b6111d08062003e7983390190565b60006020828403121562001ca557600080fd5b8151620013178162002136565b60006020828403121562001cc557600080fd5b815180151581146200131757600080fd5b60006020828403121562001ce957600080fd5b5035919050565b6000806040838503121562001d0457600080fd5b82359150602083013562001d188162002136565b809150509250929050565b60006020828403121562001d3657600080fd5b81356001600160e01b0319811681146200131757600080fd5b60006040828403121562001d6257600080fd5b6040516040810181811067ffffffffffffffff8211171562001d9457634e487b7160e01b600052604160045260246000fd5b604052825162001da4816200214c565b8152602083015162001db6816200214c565b60208201529392505050565b600060a0828403121562001dd557600080fd5b60405160a0810181811067ffffffffffffffff8211171562001e0757634e487b7160e01b600052604160045260246000fd5b604052825162001e17816200215f565b8152602083015162001e298162002136565b806020830152506040830151604082015260608301516060820152608083015160808201528091505092915050565b60006020828403121562001e6b57600080fd5b5051919050565b60008060008060008060c0878903121562001e8c57600080fd5b863562001e99816200215f565b9550602087013562001eab8162002136565b945060408701359350606087013562001ec4816200214c565b9250608087013562001ed6816200214c565b8092505060a087013590509295509295509295565b6000806000806080858703121562001f0257600080fd5b843562001f0f816200215f565b935060208501359250604085013562001f28816200214c565b9150606085013562001f3a816200214c565b939692955090935050565b7f416363657373436f6e74726f6c3a206163636f756e742000000000000000000081526000835162001f7f816017850160208801620020a7565b7001034b99036b4b9b9b4b733903937b6329607d1b601791840191820152835162001fb2816028840160208801620020a7565b01602801949350505050565b602081526000825180602084015262001fdf816040850160208701620020a7565b601f01601f19169190910160400192915050565b6020808252603b908201527f416d6f756e742070657220726573706f6e7365206d757374206265206c65737360408201527f207468616e206f7220657175616c20746f206d73672e76616c75650000000000606082015260800190565b60008219821115620020665762002066620020f4565b500190565b6000816000190483118215151615620020885762002088620020f4565b500290565b600082821015620020a257620020a2620020f4565b500390565b60005b83811015620020c4578181015183820152602001620020aa565b83811115620020d4576000848401525b50505050565b600081620020ec57620020ec620020f4565b506000190190565b634e487b7160e01b600052601160045260246000fd5b634e487b7160e01b600052603260045260246000fd5b634e487b7160e01b600052604160045260246000fd5b6001600160a01b03811681146200171257600080fd5b63ffffffff811681146200171257600080fd5b60ff811681146200171257600080fdfe60806040523480156200001157600080fd5b50604080518082018252600681526553757276657960d01b60208083019182528351808501909452600384526229a92b60e91b9084015281519192916200005b916000916200015a565b508051620000719060019060208401906200015a565b506200008391506000905033620000b5565b620000af7f9f2df0fed2c77648de5860a4cc508cd0818c85b8b8a1ab4ceeef8d981c8956a633620000b5565b6200023d565b60008281526006602090815260408083206001600160a01b038516845290915290205460ff16620001565760008281526006602090815260408083206001600160a01b03851684529091529020805460ff19166001179055620001153390565b6001600160a01b0316816001600160a01b0316837f2f8788117e7eff1d82e926ec794901d17c78024a50270940304540a733656f0d60405160405180910390a45b5050565b828054620001689062000200565b90600052602060002090601f0160209004810192826200018c5760008555620001d7565b82601f10620001a757805160ff1916838001178555620001d7565b82800160010185558215620001d7579182015b82811115620001d7578251825591602001919060010190620001ba565b50620001e5929150620001e9565b5090565b5b80821115620001e55760008155600101620001ea565b600181811c908216806200021557607f821691505b602082108114156200023757634e487b7160e01b600052602260045260246000fd5b50919050565b611abc806200024d6000396000f3fe608060405234801561001057600080fd5b506004361061014d5760003560e01c80636352211e116100c3578063a22cb4651161007c578063a22cb465146102c3578063b88d4fde146102d6578063c87b56dd146102e9578063d5391393146102fc578063d547741f14610323578063e985e9c51461033657600080fd5b80636352211e1461026757806370a082311461027a57806391d148541461028d57806395d89b41146102a0578063983b2d56146102a8578063a217fddf146102bb57600080fd5b806323b872dd1161011557806323b872dd146101e5578063248a9ca3146101f85780632f2ff15d1461021b57806336568abe1461022e57806340d097c31461024157806342842e0e1461025457600080fd5b806301ffc9a71461015257806306fdde031461017a578063081812fc1461018f578063095ea7b3146101ba57806318160ddd146101cf575b600080fd5b61016561016036600461172a565b610372565b60405190151581526020015b60405180910390f35b610182610383565b6040516101719190611871565b6101a261019d3660046116ee565b610415565b6040516001600160a01b039091168152602001610171565b6101cd6101c83660046116c4565b61043c565b005b6101d7610557565b604051908152602001610171565b6101cd6101f3366004611570565b610567565b6101d76102063660046116ee565b60009081526006602052604090206001015490565b6101cd610229366004611707565b610598565b6101cd61023c366004611707565b6105bd565b6101d761024f366004611522565b61063b565b6101cd610262366004611570565b610695565b6101a26102753660046116ee565b6106b0565b6101d7610288366004611522565b610710565b61016561029b366004611707565b610796565b6101826107c1565b6101cd6102b6366004611522565b6107d0565b6101d7600081565b6101cd6102d1366004611688565b610805565b6101cd6102e43660046115ac565b610810565b6101826102f73660046116ee565b610848565b6101d77f9f2df0fed2c77648de5860a4cc508cd0818c85b8b8a1ab4ceeef8d981c8956a681565b6101cd610331366004611707565b6108bc565b61016561034436600461153d565b6001600160a01b03918216600090815260056020908152604080832093909416825291909152205460ff1690565b600061037d826108e1565b92915050565b606060008054610392906119f9565b80601f01602080910402602001604051908101604052809291908181526020018280546103be906119f9565b801561040b5780601f106103e05761010080835404028352916020019161040b565b820191906000526020600020905b8154815290600101906020018083116103ee57829003601f168201915b5050505050905090565b600061042082610906565b506000908152600460205260409020546001600160a01b031690565b6000610447826106b0565b9050806001600160a01b0316836001600160a01b031614156104ba5760405162461bcd60e51b815260206004820152602160248201527f4552433732313a20617070726f76616c20746f2063757272656e74206f776e656044820152603960f91b60648201526084015b60405180910390fd5b336001600160a01b03821614806104d657506104d68133610344565b6105485760405162461bcd60e51b815260206004820152603d60248201527f4552433732313a20617070726f76652063616c6c6572206973206e6f7420746f60448201527f6b656e206f776e6572206f7220617070726f76656420666f7220616c6c00000060648201526084016104b1565b6105528383610968565b505050565b600061056260075490565b905090565b61057133826109d6565b61058d5760405162461bcd60e51b81526004016104b190611884565b610552838383610a55565b6000828152600660205260409020600101546105b381610bc6565b6105528383610bd0565b6001600160a01b038116331461062d5760405162461bcd60e51b815260206004820152602f60248201527f416363657373436f6e74726f6c3a2063616e206f6e6c792072656e6f756e636560448201526e103937b632b9903337b91039b2b63360891b60648201526084016104b1565b6106378282610c56565b5050565b60007f9f2df0fed2c77648de5860a4cc508cd0818c85b8b8a1ab4ceeef8d981c8956a661066781610bc6565b600061067260075490565b9050610682600780546001019055565b61068c8482610cbd565b91505b50919050565b61055283838360405180602001604052806000815250610810565b6000818152600260205260408120546001600160a01b03168061037d5760405162461bcd60e51b8152602060048201526018602482015277115490cdcc8c4e881a5b9d985b1a59081d1bdad95b88125160421b60448201526064016104b1565b60006001600160a01b03821661077a5760405162461bcd60e51b815260206004820152602960248201527f4552433732313a2061646472657373207a65726f206973206e6f7420612076616044820152683634b21037bbb732b960b91b60648201526084016104b1565b506001600160a01b031660009081526003602052604090205490565b60009182526006602090815260408084206001600160a01b0393909316845291905290205460ff1690565b606060018054610392906119f9565b60006107db81610bc6565b6106377f9f2df0fed2c77648de5860a4cc508cd0818c85b8b8a1ab4ceeef8d981c8956a683610bd0565b610637338383610cd7565b61081a33836109d6565b6108365760405162461bcd60e51b81526004016104b190611884565b61084284848484610da6565b50505050565b606061085382610906565b600061086a60408051602081019091526000815290565b9050600081511161088a57604051806020016040528060008152506108b5565b8061089484610dd9565b6040516020016108a5929190611790565b6040516020818303038152906040525b9392505050565b6000828152600660205260409020600101546108d781610bc6565b6105528383610c56565b60006001600160e01b03198216637965db0b60e01b148061037d575061037d82610e76565b6000818152600260205260409020546001600160a01b03166109655760405162461bcd60e51b8152602060048201526018602482015277115490cdcc8c4e881a5b9d985b1a59081d1bdad95b88125160421b60448201526064016104b1565b50565b600081815260046020526040902080546001600160a01b0319166001600160a01b038416908117909155819061099d826106b0565b6001600160a01b03167f8c5be1e5ebec7d5bd14f71427d1e84f3dd0314c0f7b2291e5b200ac8c7c3b92560405160405180910390a45050565b6000806109e2836106b0565b9050806001600160a01b0316846001600160a01b03161480610a2957506001600160a01b0380821660009081526005602090815260408083209388168352929052205460ff165b80610a4d5750836001600160a01b0316610a4284610415565b6001600160a01b0316145b949350505050565b826001600160a01b0316610a68826106b0565b6001600160a01b031614610a8e5760405162461bcd60e51b81526004016104b190611923565b6001600160a01b038216610af05760405162461bcd60e51b8152602060048201526024808201527f4552433732313a207472616e7366657220746f20746865207a65726f206164646044820152637265737360e01b60648201526084016104b1565b610afd8383836001610ec6565b826001600160a01b0316610b10826106b0565b6001600160a01b031614610b365760405162461bcd60e51b81526004016104b190611923565b600081815260046020908152604080832080546001600160a01b03199081169091556001600160a01b0387811680865260038552838620805460001901905590871680865283862080546001019055868652600290945282852080549092168417909155905184937fddf252ad1be2c89b69c2b068fc378daa952ba7f163c4a11628f55a4df523b3ef91a4505050565b6109658133610f4e565b610bda8282610796565b6106375760008281526006602090815260408083206001600160a01b03851684529091529020805460ff19166001179055610c123390565b6001600160a01b0316816001600160a01b0316837f2f8788117e7eff1d82e926ec794901d17c78024a50270940304540a733656f0d60405160405180910390a45050565b610c608282610796565b156106375760008281526006602090815260408083206001600160a01b0385168085529252808320805460ff1916905551339285917ff6391f5c32d9c69d2a47ea670b442974b53935d1edc7fd64eb21e047a839171b9190a45050565b610637828260405180602001604052806000815250610fa7565b816001600160a01b0316836001600160a01b03161415610d395760405162461bcd60e51b815260206004820152601960248201527f4552433732313a20617070726f766520746f2063616c6c65720000000000000060448201526064016104b1565b6001600160a01b03838116600081815260056020908152604080832094871680845294825291829020805460ff191686151590811790915591519182527f17307eab39ab6107e8899845ad3d59bd9653f200f220920489ca2b5937696c31910160405180910390a3505050565b610db1848484610a55565b610dbd84848484610fda565b6108425760405162461bcd60e51b81526004016104b1906118d1565b60606000610de6836110e7565b600101905060008167ffffffffffffffff811115610e0657610e06611a5a565b6040519080825280601f01601f191660200182016040528015610e30576020820181803683370190505b5090508181016020015b600019016f181899199a1a9b1b9c1cb0b131b232b360811b600a86061a8153600a8504945084610e6957610e6e565b610e3a565b509392505050565b60006001600160e01b031982166380ac58cd60e01b1480610ea757506001600160e01b03198216635b5e139f60e01b145b8061037d57506301ffc9a760e01b6001600160e01b031983161461037d565b6001811115610842576001600160a01b03841615610f0c576001600160a01b03841660009081526003602052604081208054839290610f0690849061199f565b90915550505b6001600160a01b03831615610842576001600160a01b03831660009081526003602052604081208054839290610f43908490611968565b909155505050505050565b610f588282610796565b61063757610f65816111bf565b610f708360206111d1565b604051602001610f819291906117bf565b60408051601f198184030181529082905262461bcd60e51b82526104b191600401611871565b610fb1838361136d565b610fbe6000848484610fda565b6105525760405162461bcd60e51b81526004016104b1906118d1565b60006001600160a01b0384163b156110dc57604051630a85bd0160e11b81526001600160a01b0385169063150b7a029061101e903390899088908890600401611834565b602060405180830381600087803b15801561103857600080fd5b505af1925050508015611068575060408051601f3d908101601f1916820190925261106591810190611747565b60015b6110c2573d808015611096576040519150601f19603f3d011682016040523d82523d6000602084013e61109b565b606091505b5080516110ba5760405162461bcd60e51b81526004016104b1906118d1565b805181602001fd5b6001600160e01b031916630a85bd0160e11b149050610a4d565b506001949350505050565b60008072184f03e93ff9f4daa797ed6e38ed64bf6a1f0160401b83106111265772184f03e93ff9f4daa797ed6e38ed64bf6a1f0160401b830492506040015b6d04ee2d6d415b85acef81000000008310611152576d04ee2d6d415b85acef8100000000830492506020015b662386f26fc10000831061117057662386f26fc10000830492506010015b6305f5e1008310611188576305f5e100830492506008015b612710831061119c57612710830492506004015b606483106111ae576064830492506002015b600a831061037d5760010192915050565b606061037d6001600160a01b03831660145b606060006111e0836002611980565b6111eb906002611968565b67ffffffffffffffff81111561120357611203611a5a565b6040519080825280601f01601f19166020018201604052801561122d576020820181803683370190505b509050600360fc1b8160008151811061124857611248611a44565b60200101906001600160f81b031916908160001a905350600f60fb1b8160018151811061127757611277611a44565b60200101906001600160f81b031916908160001a905350600061129b846002611980565b6112a6906001611968565b90505b600181111561131e576f181899199a1a9b1b9c1cb0b131b232b360811b85600f16601081106112da576112da611a44565b1a60f81b8282815181106112f0576112f0611a44565b60200101906001600160f81b031916908160001a90535060049490941c93611317816119e2565b90506112a9565b5083156108b55760405162461bcd60e51b815260206004820181905260248201527f537472696e67733a20686578206c656e67746820696e73756666696369656e7460448201526064016104b1565b6001600160a01b0382166113c35760405162461bcd60e51b815260206004820181905260248201527f4552433732313a206d696e7420746f20746865207a65726f206164647265737360448201526064016104b1565b6000818152600260205260409020546001600160a01b0316156114285760405162461bcd60e51b815260206004820152601c60248201527f4552433732313a20746f6b656e20616c7265616479206d696e7465640000000060448201526064016104b1565b611436600083836001610ec6565b6000818152600260205260409020546001600160a01b03161561149b5760405162461bcd60e51b815260206004820152601c60248201527f4552433732313a20746f6b656e20616c7265616479206d696e7465640000000060448201526064016104b1565b6001600160a01b038216600081815260036020908152604080832080546001019055848352600290915280822080546001600160a01b0319168417905551839291907fddf252ad1be2c89b69c2b068fc378daa952ba7f163c4a11628f55a4df523b3ef908290a45050565b80356001600160a01b038116811461151d57600080fd5b919050565b60006020828403121561153457600080fd5b6108b582611506565b6000806040838503121561155057600080fd5b61155983611506565b915061156760208401611506565b90509250929050565b60008060006060848603121561158557600080fd5b61158e84611506565b925061159c60208501611506565b9150604084013590509250925092565b600080600080608085870312156115c257600080fd5b6115cb85611506565b93506115d960208601611506565b925060408501359150606085013567ffffffffffffffff808211156115fd57600080fd5b818701915087601f83011261161157600080fd5b81358181111561162357611623611a5a565b604051601f8201601f19908116603f0116810190838211818310171561164b5761164b611a5a565b816040528281528a602084870101111561166457600080fd5b82602086016020830137600060208483010152809550505050505092959194509250565b6000806040838503121561169b57600080fd5b6116a483611506565b9150602083013580151581146116b957600080fd5b809150509250929050565b600080604083850312156116d757600080fd5b6116e083611506565b946020939093013593505050565b60006020828403121561170057600080fd5b5035919050565b6000806040838503121561171a57600080fd5b8235915061156760208401611506565b60006020828403121561173c57600080fd5b81356108b581611a70565b60006020828403121561175957600080fd5b81516108b581611a70565b6000815180845261177c8160208601602086016119b6565b601f01601f19169290920160200192915050565b600083516117a28184602088016119b6565b8351908301906117b68183602088016119b6565b01949350505050565b7f416363657373436f6e74726f6c3a206163636f756e74200000000000000000008152600083516117f78160178501602088016119b6565b7001034b99036b4b9b9b4b733903937b6329607d1b60179184019182015283516118288160288401602088016119b6565b01602801949350505050565b6001600160a01b038581168252841660208201526040810183905260806060820181905260009061186790830184611764565b9695505050505050565b6020815260006108b56020830184611764565b6020808252602d908201527f4552433732313a2063616c6c6572206973206e6f7420746f6b656e206f776e6560408201526c1c881bdc88185c1c1c9bdd9959609a1b606082015260800190565b60208082526032908201527f4552433732313a207472616e7366657220746f206e6f6e20455243373231526560408201527131b2b4bb32b91034b6b83632b6b2b73a32b960711b606082015260800190565b60208082526025908201527f4552433732313a207472616e736665722066726f6d20696e636f72726563742060408201526437bbb732b960d91b606082015260800190565b6000821982111561197b5761197b611a2e565b500190565b600081600019048311821515161561199a5761199a611a2e565b500290565b6000828210156119b1576119b1611a2e565b500390565b60005b838110156119d15781810151838201526020016119b9565b838111156108425750506000910152565b6000816119f1576119f1611a2e565b506000190190565b600181811c90821680611a0d57607f821691505b6020821081141561068f57634e487b7160e01b600052602260045260246000fd5b634e487b7160e01b600052601160045260246000fd5b634e487b7160e01b600052603260045260246000fd5b634e487b7160e01b600052604160045260246000fd5b6001600160e01b03198116811461096557600080fdfea264697066735822122075870325dfe415326a3a688974fa06a746dff81709ae3e777eb447e8c9d783a964736f6c6343000807003360806040523480156200001157600080fd5b50604051620011d0380380620011d083398101604081905262000034916200019d565b6001600160a01b0387166200008f5760405162461bcd60e51b815260206004820152601660248201527f496e76616c6964206c6f67696320636f6e747261637400000000000000000000604482015260640160405180910390fd5b60408051808201825263ffffffff948516808252939094166020948501819052600180546401000000009092026001600160401b031990921690941717909255815160a08101835260ff9096168087526001600160a01b03948516938701849052918601859052600060608701819052608090960186905260028054610100949094026001600160a81b03199094169092179290921790556003929092556004839055600583905582549381166001600160a01b0319948516179092556006805491909216908316179055600880549091163317905562000231565b80516001600160a01b03811681146200018357600080fd5b919050565b805163ffffffff811681146200018357600080fd5b600080600080600080600060e0888a031215620001b957600080fd5b620001c4886200016b565b9650602088015160ff81168114620001db57600080fd5b60408901519096509450620001f3606089016200016b565b9350620002036080890162000188565b92506200021360a0890162000188565b91506200022360c089016200016b565b905092959891949750929550565b610f8f80620002416000396000f3fe6080604052600436106100f35760003560e01c80636ef610921161008a578063c503133111610059578063c503133114610388578063cc047ca9146103ce578063d0e30db014610351578063ffbae704146103e357600080fd5b80636ef610921461030157806389476069146103315780638e71decb14610353578063af933b571461036857600080fd5b806356f0bb37116100c657806356f0bb37146102035780635ee58efc14610218578063680baeb814610283578063685ca194146102e157600080fd5b80631cced51b146100f85780631ef4d1fd1461015f57806322052d0714610197578063251fce52146101e0575b600080fd5b34801561010457600080fd5b5061010d610403565b6040516101569190815160ff1681526020808301516001600160a01b03169082015260408083015190820152606080830151908201526080918201519181019190915260a00190565b60405180910390f35b34801561016b57600080fd5b5060065461017f906001600160a01b031681565b6040516001600160a01b039091168152602001610156565b3480156101a357600080fd5b506101d06101b2366004610d87565b6001600160a01b031660009081526007602052604090205460ff1690565b6040519015158152602001610156565b3480156101ec57600080fd5b506101f5610485565b604051908152602001610156565b34801561020f57600080fd5b506101d061058f565b34801561022457600080fd5b5060025460035460045460055461024f9360ff8116936101009091046001600160a01b031692909185565b6040805160ff90961686526001600160a01b039094166020860152928401919091526060830152608082015260a001610156565b34801561028f57600080fd5b5060408051808201825260008082526020918201528151808301835260015463ffffffff8082168084526401000000009092048116928401928352845191825291519091169181019190915201610156565b3480156102ed57600080fd5b506101d06102fc366004610d87565b610678565b34801561030d57600080fd5b506101d061031c366004610d87565b60076020526000908152604090205460ff1681565b34801561033d57600080fd5b5061035161034c366004610d87565b610749565b005b34801561035f57600080fd5b5061017f610a1c565b34801561037457600080fd5b50610351610383366004610d87565b610aaa565b34801561039457600080fd5b506001546103b19063ffffffff8082169164010000000090041682565b6040805163ffffffff938416815292909116602083015201610156565b3480156103da57600080fd5b506003546101f5565b3480156103ef57600080fd5b506103516103fe366004610de3565b610b7f565b6104416040518060a00160405280600060ff16815260200160006001600160a01b031681526020016000815260200160008152602001600081525090565b506040805160a08101825260025460ff8116825261010090046001600160a01b03166020820152600354918101919091526004546060820152600554608082015290565b6006546004805460405163d8a4676f60e01b815291820152600091829182916001600160a01b03169063d8a4676f9060240160006040518083038186803b1580156104cf57600080fd5b505afa1580156104e3573d6000803e3d6000fd5b505050506040513d6000823e601f3d908101601f1916820160405261050b9190810190610e15565b92509250508161055a5760405162461bcd60e51b815260206004820152601560248201527414995c5d595cdd081b9bdd08199d5b199a5b1b1959605a1b60448201526064015b60405180910390fd5b60006002600301548260008151811061057557610575610f18565b60200260200101516105879190610ef6565b949350505050565b60015460009063ffffffff16158015906105b0575060015463ffffffff1642105b156105bb5750600090565b600154640100000000900463ffffffff16158015906106675750600154600054604080516318160ddd60e01b8152905164010000000090930463ffffffff16926001600160a01b03909216916318160ddd91600480820192602092909190829003018186803b15801561062d57600080fd5b505afa158015610641573d6000803e3d6000fd5b505050506040513d601f19601f820116820180604052508101906106659190610dfc565b105b156106725750600090565b50600190565b6001600160a01b03811660009081526007602052604081205460ff16156106a157506000919050565b6106a961058f565b6106b557506000919050565b600080546040516370a0823160e01b81526001600160a01b038581166004830152909116906370a082319060240160206040518083038186803b1580156106fb57600080fd5b505afa15801561070f573d6000803e3d6000fd5b505050506040513d601f19601f820116820180604052508101906107339190610dfc565b111561074157506001919050565b506000919050565b61075281610678565b6107975760405162461bcd60e51b815260206004820152601660248201527515da5d1a191c985dd85b081b9bdd08185b1b1bddd95960521b6044820152606401610551565b60025460ff1660011415610863576001600160a01b038082166000908152600760205260409020805460ff1916600117905560025461010090041663a9059cbb826107e160035490565b6040516001600160e01b031960e085901b1681526001600160a01b0390921660048301526024820152604401602060405180830381600087803b15801561082757600080fd5b505af115801561083b573d6000803e3d6000fd5b505050506040513d601f19601f8201168201806040525081019061085f9190610dc8565b5050565b600061086d610485565b600080546040516331a9108f60e11b81526004810184905292935090916001600160a01b0390911690636352211e9060240160206040518083038186803b1580156108b757600080fd5b505afa1580156108cb573d6000803e3d6000fd5b505050506040513d601f19601f820116820180604052508101906108ef9190610dab565b6001600160a01b0381811660009081526007602052604090819020805460ff1916600117905560025490516370a0823160e01b81523060048201529293506101009004169063a9059cbb90839083906370a082319060240160206040518083038186803b15801561095f57600080fd5b505afa158015610973573d6000803e3d6000fd5b505050506040513d601f19601f820116820180604052508101906109979190610dfc565b6040516001600160e01b031960e085901b1681526001600160a01b0390921660048301526024820152604401602060405180830381600087803b1580156109dd57600080fd5b505af11580156109f1573d6000803e3d6000fd5b505050506040513d601f19601f82011682018060405250810190610a159190610dc8565b5050505b50565b600080610a27610485565b6000546040516331a9108f60e11b8152600481018390529192506001600160a01b031690636352211e9060240160206040518083038186803b158015610a6c57600080fd5b505afa158015610a80573d6000803e3d6000fd5b505050506040513d601f19601f82011682018060405250810190610aa49190610dab565b91505090565b610ab381610678565b610af85760405162461bcd60e51b815260206004820152601660248201527515da5d1a191c985dd85b081b9bdd08185b1b1bddd95960521b6044820152606401610551565b60025460ff1660011415610b45576001600160a01b0381166000908152600760205260409020805460ff19166001179055610a19610b3560035490565b6001600160a01b03831690610c54565b6000610b4f610a1c565b6001600160a01b0381166000818152600760205260409020805460ff1916600117905590915061085f9047610c54565b6008546001600160a01b03163314610bd05760405162461bcd60e51b815260206004820152601460248201527327b7363c90343ab11031b0b7103a3934b3b3b2b960611b6044820152606401610551565b6004818155600054604080516318160ddd60e01b815290516001600160a01b03909216926318160ddd928282019260209290829003018186803b158015610c1657600080fd5b505afa158015610c2a573d6000803e3d6000fd5b505050506040513d601f19601f82011682018060405250810190610c4e9190610dfc565b60055550565b80471015610ca45760405162461bcd60e51b815260206004820152601d60248201527f416464726573733a20696e73756666696369656e742062616c616e63650000006044820152606401610551565b6000826001600160a01b03168260405160006040518083038185875af1925050503d8060008114610cf1576040519150601f19603f3d011682016040523d82523d6000602084013e610cf6565b606091505b5050905080610d6d5760405162461bcd60e51b815260206004820152603a60248201527f416464726573733a20756e61626c6520746f2073656e642076616c75652c207260448201527f6563697069656e74206d617920686176652072657665727465640000000000006064820152608401610551565b505050565b80518015158114610d8257600080fd5b919050565b600060208284031215610d9957600080fd5b8135610da481610f44565b9392505050565b600060208284031215610dbd57600080fd5b8151610da481610f44565b600060208284031215610dda57600080fd5b610da482610d72565b600060208284031215610df557600080fd5b5035919050565b600060208284031215610e0e57600080fd5b5051919050565b600080600060608486031215610e2a57600080fd5b835192506020610e3b818601610d72565b9250604085015167ffffffffffffffff80821115610e5857600080fd5b818701915087601f830112610e6c57600080fd5b815181811115610e7e57610e7e610f2e565b8060051b604051601f19603f83011681018181108582111715610ea357610ea3610f2e565b604052828152858101935084860182860187018c1015610ec257600080fd5b600095505b83861015610ee5578051855260019590950194938601938601610ec7565b508096505050505050509250925092565b600082610f1357634e487b7160e01b600052601260045260246000fd5b500690565b634e487b7160e01b600052603260045260246000fd5b634e487b7160e01b600052604160045260246000fd5b6001600160a01b0381168114610a1957600080fdfea2646970667358221220614241b9a0f183ea30f44d68ab458216229eff0bde361f01756568ebc0f9d57d64736f6c63430008070033a2646970667358221220f30b15e7327da4f119cf02cd1ac413fd78a8caf85082ea92d84f90aa751c3b4864736f6c63430008070033",
  "linkReferences": {},
  "deployedLinkReferences": {}
}