{
  "_format": "hh-sol-artifact-1",
  "contractName": "SurveyHub",
  "sourceName": "contracts/SurveyHub.sol",
  "abi": [
    {
      "inputs": [
        {
          "internalType": "address",
          "name": "surveyAddress",
          "type": "address"
        }
      ],
      "stateMutability": "nonpayable",
      "type": "constructor"
    },
    {
      "inputs": [
        {
          "internalType": "uint256",
          "name": "surveyId",
          "type": "uint256"
        },
        {
          "internalType": "address",
          "name": "responder",
          "type": "address"
        }
      ],
      "name": "addResponse",
      "outputs": [],
      "stateMutability": "nonpayable",
      "type": "function"
    },
    {
      "inputs": [
        {
          "internalType": "uint8",
          "name": "distributionType",
          "type": "uint8"
        },
        {
          "internalType": "uint256",
          "name": "amountPerResponse",
          "type": "uint256"
        },
        {
          "internalType": "uint32",
          "name": "timestamp",
          "type": "uint32"
        },
        {
          "internalType": "uint32",
          "name": "minTotalSupply",
          "type": "uint32"
        }
      ],
      "name": "createSurveyWithEther",
      "outputs": [],
      "stateMutability": "payable",
      "type": "function"
    },
    {
      "inputs": [
        {
          "internalType": "uint8",
          "name": "distributionType",
          "type": "uint8"
        },
        {
          "internalType": "address",
          "name": "tokenAddress",
          "type": "address"
        },
        {
          "internalType": "uint256",
          "name": "amountPerResponse",
          "type": "uint256"
        },
        {
          "internalType": "uint32",
          "name": "timestamp",
          "type": "uint32"
        },
        {
          "internalType": "uint32",
          "name": "minTotalSupply",
          "type": "uint32"
        },
        {
          "internalType": "uint256",
          "name": "totalAmount",
          "type": "uint256"
        }
      ],
      "name": "createSurveyWithToken",
      "outputs": [],
      "stateMutability": "nonpayable",
      "type": "function"
    },
    {
      "inputs": [
        {
          "internalType": "uint256",
          "name": "surveyId",
          "type": "uint256"
        }
      ],
      "name": "escrowBalance",
      "outputs": [
        {
          "internalType": "uint256",
          "name": "",
          "type": "uint256"
        }
      ],
      "stateMutability": "view",
      "type": "function"
    },
    {
      "inputs": [
        {
          "internalType": "uint256",
          "name": "surveyId",
          "type": "uint256"
        },
        {
          "internalType": "address",
          "name": "responder",
          "type": "address"
        }
      ],
      "name": "getPaidEther",
      "outputs": [],
      "stateMutability": "nonpayable",
      "type": "function"
    },
    {
      "inputs": [
        {
          "internalType": "uint256",
          "name": "surveyId",
          "type": "uint256"
        },
        {
          "internalType": "address",
          "name": "responder",
          "type": "address"
        }
      ],
      "name": "getPaidToken",
      "outputs": [],
      "stateMutability": "nonpayable",
      "type": "function"
    },
    {
      "inputs": [
        {
          "internalType": "uint256",
          "name": "surveyId",
          "type": "uint256"
        },
        {
          "internalType": "address",
          "name": "responder",
          "type": "address"
        }
      ],
      "name": "hasResponded",
      "outputs": [
        {
          "internalType": "bool",
          "name": "",
          "type": "bool"
        }
      ],
      "stateMutability": "view",
      "type": "function"
    },
    {
      "inputs": [
        {
          "internalType": "uint256",
          "name": "surveyId",
          "type": "uint256"
        },
        {
          "internalType": "address",
          "name": "responder",
          "type": "address"
        }
      ],
      "name": "oneClickResponseAndEarnEther",
      "outputs": [],
      "stateMutability": "nonpayable",
      "type": "function"
    },
    {
      "inputs": [
        {
          "internalType": "uint256",
          "name": "surveyId",
          "type": "uint256"
        },
        {
          "internalType": "address",
          "name": "responder",
          "type": "address"
        }
      ],
      "name": "oneClickResponseAndEarnToken",
      "outputs": [],
      "stateMutability": "nonpayable",
      "type": "function"
    },
    {
      "inputs": [
        {
          "internalType": "uint256",
          "name": "surveyId",
          "type": "uint256"
        }
      ],
      "name": "responseCount",
      "outputs": [
        {
          "internalType": "uint256",
          "name": "",
          "type": "uint256"
        }
      ],
      "stateMutability": "view",
      "type": "function"
    },
    {
      "inputs": [],
      "name": "survey",
      "outputs": [
        {
          "internalType": "contract Survey",
          "name": "",
          "type": "address"
        }
      ],
      "stateMutability": "view",
      "type": "function"
    },
    {
      "inputs": [],
      "name": "surveyCount",
      "outputs": [
        {
          "internalType": "uint256",
          "name": "",
          "type": "uint256"
        }
      ],
      "stateMutability": "view",
      "type": "function"
    },
    {
      "inputs": [
        {
          "internalType": "uint256",
          "name": "",
          "type": "uint256"
        }
      ],
      "name": "surveys",
      "outputs": [
        {
          "internalType": "contract SurveyEscrow",
          "name": "escrow",
          "type": "address"
        }
      ],
      "stateMutability": "view",
      "type": "function"
    }
  ],
  "bytecode": "0x60806040523480156200001157600080fd5b506040516200366b3803806200366b8339818101604052810190620000379190620000e8565b806000806101000a81548173ffffffffffffffffffffffffffffffffffffffff021916908373ffffffffffffffffffffffffffffffffffffffff160217905550506200011a565b600080fd5b600073ffffffffffffffffffffffffffffffffffffffff82169050919050565b6000620000b08262000083565b9050919050565b620000c281620000a3565b8114620000ce57600080fd5b50565b600081519050620000e281620000b7565b92915050565b6000602082840312156200010157620001006200007e565b5b60006200011184828501620000d1565b91505092915050565b613541806200012a6000396000f3fe608060405260043610620000d45760003560e01c8063653f43f5116200008b578063bb099ee31162000061578063bb099ee31462000297578063e804f4c014620002db578063f447d10c146200030b578063f9dbed52146200033957620000d4565b8063653f43f514620001f557806386e68b901462000225578063b028a137146200026957620000d4565b80630ced345e14620000d95780631a48f7511462000107578063287d3d36146200014b57806342d0922014620001795780634b96aebd14620001a75780634f10c6f014620001d5575b600080fd5b348015620000e657600080fd5b50620001056004803603810190620000ff9190620012dc565b6200037d565b005b3480156200011457600080fd5b506200013360048036038101906200012d919062001323565b62000514565b60405162000142919062001366565b60405180910390f35b3480156200015857600080fd5b50620001776004803603810190620001719190620012dc565b620005bd565b005b3480156200018657600080fd5b50620001a560048036038101906200019f9190620012dc565b620006ee565b005b348015620001b457600080fd5b50620001d36004803603810190620001cd9190620012dc565b6200070a565b005b620001f36004803603810190620001ed919062001402565b62000726565b005b3480156200020257600080fd5b506200020d620007f4565b6040516200021c9190620014df565b60405180910390f35b3480156200023257600080fd5b506200025160048036038101906200024b919062001323565b62000818565b60405162000260919062001521565b60405180910390f35b3480156200027657600080fd5b506200029560048036038101906200028f9190620012dc565b62000863565b005b348015620002a457600080fd5b50620002c36004803603810190620002bd919062001323565b6200091a565b604051620002d2919062001366565b60405180910390f35b348015620002e857600080fd5b50620002f362000b3f565b60405162000302919062001366565b60405180910390f35b3480156200031857600080fd5b506200033760048036038101906200033191906200153e565b62000b92565b005b3480156200034657600080fd5b506200036560048036038101906200035f9190620012dc565b62000cc5565b604051620003749190620015f7565b60405180910390f35b620003be6040518060400160405280600b81526020017f73757276657949642025730000000000000000000000000000000000000000008152508362000d71565b620004506040518060400160405280600f81526020017f67657450616964546f6b656e20257300000000000000000000000000000000008152506001808562000408919062001643565b815481106200041c576200041b6200167e565b5b9060005260206000200160000160009054906101000a900473ffffffffffffffffffffffffffffffffffffffff1662000e11565b6001808362000460919062001643565b815481106200047457620004736200167e565b5b9060005260206000200160000160009054906101000a900473ffffffffffffffffffffffffffffffffffffffff1673ffffffffffffffffffffffffffffffffffffffff166389476069826040518263ffffffff1660e01b8152600401620004dc9190620016be565b600060405180830381600087803b158015620004f757600080fd5b505af11580156200050c573d6000803e3d6000fd5b505050505050565b60008060009054906101000a900473ffffffffffffffffffffffffffffffffffffffff1673ffffffffffffffffffffffffffffffffffffffff1663bd85b039836040518263ffffffff1660e01b815260040162000572919062001366565b602060405180830381865afa15801562000590573d6000803e3d6000fd5b505050506040513d601f19601f82011682018060405250810190620005b69190620016f2565b9050919050565b600082118015620005d357508160018054905010155b62000615576040517f08c379a00000000000000000000000000000000000000000000000000000000081526004016200060c9062001785565b60405180910390fd5b620006566040518060400160405280600a81526020017f6d696e74696e67202573000000000000000000000000000000000000000000008152508262000e11565b60008054906101000a900473ffffffffffffffffffffffffffffffffffffffff1673ffffffffffffffffffffffffffffffffffffffff1663731133e9828460016040518463ffffffff1660e01b8152600401620006b69392919062001825565b600060405180830381600087803b158015620006d157600080fd5b505af1158015620006e6573d6000803e3d6000fd5b505050505050565b620006fa8282620005bd565b62000706828262000863565b5050565b620007168282620005bd565b6200072282826200037d565b5050565b6200073684600085858562000eb1565b60018080805490506200074a919062001643565b815481106200075e576200075d6200167e565b5b9060005260206000200160000160009054906101000a900473ffffffffffffffffffffffffffffffffffffffff1673ffffffffffffffffffffffffffffffffffffffff1663d0e30db0346040518263ffffffff1660e01b81526004016000604051808303818588803b158015620007d457600080fd5b505af1158015620007e9573d6000803e3d6000fd5b505050505050505050565b60008054906101000a900473ffffffffffffffffffffffffffffffffffffffff1681565b600181815481106200082957600080fd5b906000526020600020016000915090508060000160009054906101000a900473ffffffffffffffffffffffffffffffffffffffff16905081565b600182815481106200087a57620008796200167e565b5b9060005260206000200160000160009054906101000a900473ffffffffffffffffffffffffffffffffffffffff1673ffffffffffffffffffffffffffffffffffffffff166389476069826040518263ffffffff1660e01b8152600401620008e29190620016be565b600060405180830381600087803b158015620008fd57600080fd5b505af115801562000912573d6000803e3d6000fd5b505050505050565b600080600183815481106200093457620009336200167e565b5b9060005260206000200160000160009054906101000a900473ffffffffffffffffffffffffffffffffffffffff1673ffffffffffffffffffffffffffffffffffffffff16631cced51b6040518163ffffffff1660e01b8152600401606060405180830381865afa158015620009ad573d6000803e3d6000fd5b505050506040513d601f19601f82011682018060405250810190620009d39190620019ae565b602001519050600073ffffffffffffffffffffffffffffffffffffffff168173ffffffffffffffffffffffffffffffffffffffff160362000a73576001838154811062000a255762000a246200167e565b5b9060005260206000200160000160009054906101000a900473ffffffffffffffffffffffffffffffffffffffff1673ffffffffffffffffffffffffffffffffffffffff163191505062000b3a565b8073ffffffffffffffffffffffffffffffffffffffff166370a082316001858154811062000aa65762000aa56200167e565b5b9060005260206000200160000160009054906101000a900473ffffffffffffffffffffffffffffffffffffffff166040518263ffffffff1660e01b815260040162000af29190620016be565b602060405180830381865afa15801562000b10573d6000803e3d6000fd5b505050506040513d601f19601f8201168201806040525081019062000b369190620016f2565b9150505b919050565b600062000b876040518060400160405280601181526020017f437265617465642073757276657920257300000000000000000000000000000081525060018054905062000d71565b600180549050905090565b62000ba1868686868662000eb1565b62000be26040518060400160405280600981526020017f6c736c736c7320257300000000000000000000000000000000000000000000008152508662000e11565b8473ffffffffffffffffffffffffffffffffffffffff166323b872dd33600180808054905062000c13919062001643565b8154811062000c275762000c266200167e565b5b9060005260206000200160000160009054906101000a900473ffffffffffffffffffffffffffffffffffffffff16846040518463ffffffff1660e01b815260040162000c7693929190620019e0565b6020604051808303816000875af115801562000c96573d6000803e3d6000fd5b505050506040513d601f19601f8201168201806040525081019062000cbc919062001a4e565b50505050505050565b60008060008054906101000a900473ffffffffffffffffffffffffffffffffffffffff1673ffffffffffffffffffffffffffffffffffffffff1662fdd58e84866040518363ffffffff1660e01b815260040162000d2492919062001a80565b602060405180830381865afa15801562000d42573d6000803e3d6000fd5b505050506040513d601f19601f8201168201806040525081019062000d689190620016f2565b11905092915050565b62000e0d828260405160240162000d8a92919062001b25565b6040516020818303038152906040527fb60e72cc000000000000000000000000000000000000000000000000000000007bffffffffffffffffffffffffffffffffffffffffffffffffffffffff19166020820180517bffffffffffffffffffffffffffffffffffffffffffffffffffffffff838183161783525050505062001159565b5050565b62000ead828260405160240162000e2a92919062001b59565b6040516020818303038152906040527f319af333000000000000000000000000000000000000000000000000000000007bffffffffffffffffffffffffffffffffffffffffffffffffffffffff19166020820180517bffffffffffffffffffffffffffffffffffffffffffffffffffffffff838183161783525050505062001159565b5050565b60008060009054906101000a900473ffffffffffffffffffffffffffffffffffffffff166001808054905062000ee8919062001b8d565b878688878760405162000efb906200121f565b62000f0d979695949392919062001bea565b604051809103906000f08015801562000f2a573d6000803e3d6000fd5b50905062000f6e6040518060400160405280600981526020017f6c736c736c7320257300000000000000000000000000000000000000000000008152508262000e11565b600060405180602001604052808373ffffffffffffffffffffffffffffffffffffffff1681525090506001819080600181540180825580915050600190039060005260206000200160009091909190915060008201518160000160006101000a81548173ffffffffffffffffffffffffffffffffffffffff021916908373ffffffffffffffffffffffffffffffffffffffff16021790555050506200104e6040518060400160405280600881526020017f5b7070705d20257300000000000000000000000000000000000000000000000081525060018054905062000d71565b3360026000600180549050815260200190815260200160002060006101000a81548173ffffffffffffffffffffffffffffffffffffffff021916908373ffffffffffffffffffffffffffffffffffffffff160217905550600360003373ffffffffffffffffffffffffffffffffffffffff1673ffffffffffffffffffffffffffffffffffffffff1681526020019081526020016000206001805490509080600181540180825580915050600190039060005260206000200160009091909190915055620011506040518060400160405280600481526020017f736b736b0000000000000000000000000000000000000000000000000000000081525062001182565b50505050505050565b60008151905060006a636f6e736f6c652e6c6f679050602083016000808483855afa5050505050565b6200121c8160405160240162001199919062001c67565b6040516020818303038152906040527f41304fac000000000000000000000000000000000000000000000000000000007bffffffffffffffffffffffffffffffffffffffffffffffffffffffff19166020820180517bffffffffffffffffffffffffffffffffffffffffffffffffffffffff838183161783525050505062001159565b50565b6118808062001c8c83390190565b6000604051905090565b600080fd5b6000819050919050565b62001251816200123c565b81146200125d57600080fd5b50565b600081359050620012718162001246565b92915050565b600073ffffffffffffffffffffffffffffffffffffffff82169050919050565b6000620012a48262001277565b9050919050565b620012b68162001297565b8114620012c257600080fd5b50565b600081359050620012d681620012ab565b92915050565b60008060408385031215620012f657620012f562001237565b5b6000620013068582860162001260565b92505060206200131985828601620012c5565b9150509250929050565b6000602082840312156200133c576200133b62001237565b5b60006200134c8482850162001260565b91505092915050565b62001360816200123c565b82525050565b60006020820190506200137d600083018462001355565b92915050565b600060ff82169050919050565b6200139b8162001383565b8114620013a757600080fd5b50565b600081359050620013bb8162001390565b92915050565b600063ffffffff82169050919050565b620013dc81620013c1565b8114620013e857600080fd5b50565b600081359050620013fc81620013d1565b92915050565b600080600080608085870312156200141f576200141e62001237565b5b60006200142f87828801620013aa565b9450506020620014428782880162001260565b93505060406200145587828801620013eb565b92505060606200146887828801620013eb565b91505092959194509250565b6000819050919050565b60006200149f62001499620014938462001277565b62001474565b62001277565b9050919050565b6000620014b3826200147e565b9050919050565b6000620014c782620014a6565b9050919050565b620014d981620014ba565b82525050565b6000602082019050620014f66000830184620014ce565b92915050565b60006200150982620014a6565b9050919050565b6200151b81620014fc565b82525050565b600060208201905062001538600083018462001510565b92915050565b60008060008060008060c087890312156200155e576200155d62001237565b5b60006200156e89828a01620013aa565b96505060206200158189828a01620012c5565b95505060406200159489828a0162001260565b9450506060620015a789828a01620013eb565b9350506080620015ba89828a01620013eb565b92505060a0620015cd89828a0162001260565b9150509295509295509295565b60008115159050919050565b620015f181620015da565b82525050565b60006020820190506200160e6000830184620015e6565b92915050565b7f4e487b7100000000000000000000000000000000000000000000000000000000600052601160045260246000fd5b600062001650826200123c565b91506200165d836200123c565b925082820390508181111562001678576200167762001614565b5b92915050565b7f4e487b7100000000000000000000000000000000000000000000000000000000600052603260045260246000fd5b620016b88162001297565b82525050565b6000602082019050620016d56000830184620016ad565b92915050565b600081519050620016ec8162001246565b92915050565b6000602082840312156200170b576200170a62001237565b5b60006200171b84828501620016db565b91505092915050565b600082825260208201905092915050565b7f53757276657920646f6573206e6f742065786973740000000000000000000000600082015250565b60006200176d60158362001724565b91506200177a8262001735565b602082019050919050565b60006020820190508181036000830152620017a0816200175e565b9050919050565b6000819050919050565b6000620017d2620017cc620017c684620017a7565b62001474565b6200123c565b9050919050565b620017e481620017b1565b82525050565b600082825260208201905092915050565b50565b60006200180d600083620017ea565b91506200181a82620017fb565b600082019050919050565b60006080820190506200183c6000830186620016ad565b6200184b602083018562001355565b6200185a6040830184620017d9565b81810360608301526200186d81620017fe565b9050949350505050565b600080fd5b6000601f19601f8301169050919050565b7f4e487b7100000000000000000000000000000000000000000000000000000000600052604160045260246000fd5b620018c7826200187c565b810181811067ffffffffffffffff82111715620018e957620018e86200188d565b5b80604052505050565b6000620018fe6200122d565b90506200190c8282620018bc565b919050565b600081519050620019228162001390565b92915050565b6000815190506200193981620012ab565b92915050565b60006060828403121562001958576200195762001877565b5b620019646060620018f2565b90506000620019768482850162001911565b60008301525060206200198c8482850162001928565b6020830152506040620019a284828501620016db565b60408301525092915050565b600060608284031215620019c757620019c662001237565b5b6000620019d7848285016200193f565b91505092915050565b6000606082019050620019f76000830186620016ad565b62001a066020830185620016ad565b62001a15604083018462001355565b949350505050565b62001a2881620015da565b811462001a3457600080fd5b50565b60008151905062001a488162001a1d565b92915050565b60006020828403121562001a675762001a6662001237565b5b600062001a778482850162001a37565b91505092915050565b600060408201905062001a976000830185620016ad565b62001aa6602083018462001355565b9392505050565b600081519050919050565b60005b8381101562001ad857808201518184015260208101905062001abb565b60008484015250505050565b600062001af18262001aad565b62001afd818562001724565b935062001b0f81856020860162001ab8565b62001b1a816200187c565b840191505092915050565b6000604082019050818103600083015262001b41818562001ae4565b905062001b52602083018462001355565b9392505050565b6000604082019050818103600083015262001b75818562001ae4565b905062001b866020830184620016ad565b9392505050565b600062001b9a826200123c565b915062001ba7836200123c565b925082820190508082111562001bc25762001bc162001614565b5b92915050565b62001bd38162001383565b82525050565b62001be481620013c1565b82525050565b600060e08201905062001c01600083018a620016ad565b62001c10602083018962001355565b62001c1f604083018862001bc8565b62001c2e606083018762001355565b62001c3d6080830186620016ad565b62001c4c60a083018562001bd9565b62001c5b60c083018462001bd9565b98975050505050505050565b6000602082019050818103600083015262001c83818462001ae4565b90509291505056fe60806040523480156200001157600080fd5b506040516200188038038062001880833981810160405281019062000037919062000349565b600073ffffffffffffffffffffffffffffffffffffffff168773ffffffffffffffffffffffffffffffffffffffff1603620000a9576040517f08c379a0000000000000000000000000000000000000000000000000000000008152600401620000a0906200045d565b60405180910390fd5b60405180606001604052808363ffffffff1681526020018263ffffffff16815260200187815250600160008201518160000160006101000a81548163ffffffff021916908363ffffffff16021790555060208201518160000160046101000a81548163ffffffff021916908363ffffffff1602179055506040820151816001015590505060405180606001604052808660ff1681526020018473ffffffffffffffffffffffffffffffffffffffff16815260200185815250600360008201518160000160006101000a81548160ff021916908360ff16021790555060208201518160000160016101000a81548173ffffffffffffffffffffffffffffffffffffffff021916908373ffffffffffffffffffffffffffffffffffffffff16021790555060408201518160010155905050866000806101000a81548173ffffffffffffffffffffffffffffffffffffffff021916908373ffffffffffffffffffffffffffffffffffffffff160217905550505050505050506200047f565b600080fd5b600073ffffffffffffffffffffffffffffffffffffffff82169050919050565b600062000257826200022a565b9050919050565b62000269816200024a565b81146200027557600080fd5b50565b60008151905062000289816200025e565b92915050565b6000819050919050565b620002a4816200028f565b8114620002b057600080fd5b50565b600081519050620002c48162000299565b92915050565b600060ff82169050919050565b620002e281620002ca565b8114620002ee57600080fd5b50565b6000815190506200030281620002d7565b92915050565b600063ffffffff82169050919050565b620003238162000308565b81146200032f57600080fd5b50565b600081519050620003438162000318565b92915050565b600080600080600080600060e0888a0312156200036b576200036a62000225565b5b60006200037b8a828b0162000278565b97505060206200038e8a828b01620002b3565b9650506040620003a18a828b01620002f1565b9550506060620003b48a828b01620002b3565b9450506080620003c78a828b0162000278565b93505060a0620003da8a828b0162000332565b92505060c0620003ed8a828b0162000332565b91505092959891949750929550565b600082825260208201905092915050565b7f496e76616c6964206c6f67696320636f6e747261637400000000000000000000600082015250565b600062000445601683620003fc565b915062000452826200040d565b602082019050919050565b60006020820190508181036000830152620004788162000436565b9050919050565b6113f1806200048f6000396000f3fe6080604052600436106100915760003560e01c80636ef61092116100595780636ef610921461019357806389476069146101d0578063af933b57146101f9578063c503133114610222578063d0e30db01461024f57610091565b80631cced51b1461009657806322052d07146100c15780635ee58efc146100fe578063680baeb81461012b578063685ca19414610156575b600080fd5b3480156100a257600080fd5b506100ab610259565b6040516100b89190610d9d565b60405180910390f35b3480156100cd57600080fd5b506100e860048036038101906100e39190610de9565b6102f0565b6040516100f59190610e31565b60405180910390f35b34801561010a57600080fd5b50610113610346565b60405161012293929190610e79565b60405180910390f35b34801561013757600080fd5b5061014061038b565b60405161014d9190610f11565b60405180910390f35b34801561016257600080fd5b5061017d60048036038101906101789190610de9565b6103fb565b60405161018a9190610e31565b60405180910390f35b34801561019f57600080fd5b506101ba60048036038101906101b59190610de9565b610656565b6040516101c79190610e31565b60405180910390f35b3480156101dc57600080fd5b506101f760048036038101906101f29190610de9565b610676565b005b34801561020557600080fd5b50610220600480360381019061021b9190610f6a565b61086f565b005b34801561022e57600080fd5b50610237610956565b60405161024693929190610fa6565b60405180910390f35b61025761098e565b005b610261610c7e565b60036040518060600160405290816000820160009054906101000a900460ff1660ff1660ff1681526020016000820160019054906101000a900473ffffffffffffffffffffffffffffffffffffffff1673ffffffffffffffffffffffffffffffffffffffff1673ffffffffffffffffffffffffffffffffffffffff168152602001600182015481525050905090565b6000600560008373ffffffffffffffffffffffffffffffffffffffff1673ffffffffffffffffffffffffffffffffffffffff16815260200190815260200160002060009054906101000a900460ff169050919050565b60038060000160009054906101000a900460ff16908060000160019054906101000a900473ffffffffffffffffffffffffffffffffffffffff16908060010154905083565b610393610cb8565b60016040518060600160405290816000820160009054906101000a900463ffffffff1663ffffffff1663ffffffff1681526020016000820160049054906101000a900463ffffffff1663ffffffff1663ffffffff168152602001600182015481525050905090565b6000600560008373ffffffffffffffffffffffffffffffffffffffff1673ffffffffffffffffffffffffffffffffffffffff16815260200190815260200160002060009054906101000a900460ff16156104585760009050610651565b6000600160000160009054906101000a900463ffffffff1663ffffffff1611801561049d5750600160000160009054906101000a900463ffffffff1663ffffffff1642105b156104ab5760009050610651565b6000600160000160049054906101000a900463ffffffff1663ffffffff1611801561058d5750600160000160049054906101000a900463ffffffff1663ffffffff1660008054906101000a900473ffffffffffffffffffffffffffffffffffffffff1673ffffffffffffffffffffffffffffffffffffffff1663bd85b03960018001546040518263ffffffff1660e01b815260040161054a9190610fdd565b602060405180830381865afa158015610567573d6000803e3d6000fd5b505050506040513d601f19601f8201168201806040525081019061058b9190611024565b105b1561059b5760009050610651565b60008060009054906101000a900473ffffffffffffffffffffffffffffffffffffffff1673ffffffffffffffffffffffffffffffffffffffff1662fdd58e8460018001546040518363ffffffff1660e01b81526004016105fc929190611051565b602060405180830381865afa158015610619573d6000803e3d6000fd5b505050506040513d601f19601f8201168201806040525081019061063d9190611024565b111561064c5760019050610651565b600090505b919050565b60056020528060005260406000206000915054906101000a900460ff1681565b6106b46040518060400160405280600481526020017f6865726500000000000000000000000000000000000000000000000000000000815250610990565b6106bd816103fb565b6106fc576040517f08c379a00000000000000000000000000000000000000000000000000000000081526004016106f3906110fd565b60405180910390fd5b6000600360000160009054906101000a900460ff1660ff16031561086c576001600360000160009054906101000a900460ff1660ff160361086b57600060036001015490506000600360000160019054906101000a900473ffffffffffffffffffffffffffffffffffffffff1690506107aa6040518060400160405280600a81526020017f616d6f756e743a2025730000000000000000000000000000000000000000000081525083610a29565b6107e96040518060400160405280601081526020017f746f6b656e416464726573733a2025730000000000000000000000000000000081525082610ac5565b8073ffffffffffffffffffffffffffffffffffffffff1663a9059cbb84846040518363ffffffff1660e01b8152600401610824929190611051565b6020604051808303816000875af1158015610843573d6000803e3d6000fd5b505050506040513d601f19601f820116820180604052508101906108679190611149565b5050505b5b50565b610878816103fb565b6108b7576040517f08c379a00000000000000000000000000000000000000000000000000000000081526004016108ae906110fd565b60405180910390fd5b6000600360000160009054906101000a900460ff1660ff160315610953576001600360000160009054906101000a900460ff1660ff160361095257600060036001015490506000600360000160019054906101000a900473ffffffffffffffffffffffffffffffffffffffff16905061094f828473ffffffffffffffffffffffffffffffffffffffff16610b6190919063ffffffff16565b50505b5b50565b60018060000160009054906101000a900463ffffffff16908060000160049054906101000a900463ffffffff16908060010154905083565b565b610a26816040516024016109a491906111f5565b6040516020818303038152906040527f41304fac000000000000000000000000000000000000000000000000000000007bffffffffffffffffffffffffffffffffffffffffffffffffffffffff19166020820180517bffffffffffffffffffffffffffffffffffffffffffffffffffffffff8381831617835250505050610c55565b50565b610ac18282604051602401610a3f929190611217565b6040516020818303038152906040527fb60e72cc000000000000000000000000000000000000000000000000000000007bffffffffffffffffffffffffffffffffffffffffffffffffffffffff19166020820180517bffffffffffffffffffffffffffffffffffffffffffffffffffffffff8381831617835250505050610c55565b5050565b610b5d8282604051602401610adb929190611247565b6040516020818303038152906040527f319af333000000000000000000000000000000000000000000000000000000007bffffffffffffffffffffffffffffffffffffffffffffffffffffffff19166020820180517bffffffffffffffffffffffffffffffffffffffffffffffffffffffff8381831617835250505050610c55565b5050565b80471015610ba4576040517f08c379a0000000000000000000000000000000000000000000000000000000008152600401610b9b906112c3565b60405180910390fd5b60008273ffffffffffffffffffffffffffffffffffffffff1682604051610bca90611314565b60006040518083038185875af1925050503d8060008114610c07576040519150601f19603f3d011682016040523d82523d6000602084013e610c0c565b606091505b5050905080610c50576040517f08c379a0000000000000000000000000000000000000000000000000000000008152600401610c479061139b565b60405180910390fd5b505050565b60008151905060006a636f6e736f6c652e6c6f679050602083016000808483855afa5050505050565b6040518060600160405280600060ff168152602001600073ffffffffffffffffffffffffffffffffffffffff168152602001600081525090565b6040518060600160405280600063ffffffff168152602001600063ffffffff168152602001600081525090565b600060ff82169050919050565b610cfb81610ce5565b82525050565b600073ffffffffffffffffffffffffffffffffffffffff82169050919050565b6000610d2c82610d01565b9050919050565b610d3c81610d21565b82525050565b6000819050919050565b610d5581610d42565b82525050565b606082016000820151610d716000850182610cf2565b506020820151610d846020850182610d33565b506040820151610d976040850182610d4c565b50505050565b6000606082019050610db26000830184610d5b565b92915050565b600080fd5b610dc681610d21565b8114610dd157600080fd5b50565b600081359050610de381610dbd565b92915050565b600060208284031215610dff57610dfe610db8565b5b6000610e0d84828501610dd4565b91505092915050565b60008115159050919050565b610e2b81610e16565b82525050565b6000602082019050610e466000830184610e22565b92915050565b610e5581610ce5565b82525050565b610e6481610d21565b82525050565b610e7381610d42565b82525050565b6000606082019050610e8e6000830186610e4c565b610e9b6020830185610e5b565b610ea86040830184610e6a565b949350505050565b600063ffffffff82169050919050565b610ec981610eb0565b82525050565b606082016000820151610ee56000850182610ec0565b506020820151610ef86020850182610ec0565b506040820151610f0b6040850182610d4c565b50505050565b6000606082019050610f266000830184610ecf565b92915050565b6000610f3782610d01565b9050919050565b610f4781610f2c565b8114610f5257600080fd5b50565b600081359050610f6481610f3e565b92915050565b600060208284031215610f8057610f7f610db8565b5b6000610f8e84828501610f55565b91505092915050565b610fa081610eb0565b82525050565b6000606082019050610fbb6000830186610f97565b610fc86020830185610f97565b610fd56040830184610e6a565b949350505050565b6000602082019050610ff26000830184610e6a565b92915050565b61100181610d42565b811461100c57600080fd5b50565b60008151905061101e81610ff8565b92915050565b60006020828403121561103a57611039610db8565b5b60006110488482850161100f565b91505092915050565b60006040820190506110666000830185610e5b565b6110736020830184610e6a565b9392505050565b600082825260208201905092915050565b7f457363726f773a207061796565206973206e6f7420616c6c6f77656420746f2060008201527f7769746864726177000000000000000000000000000000000000000000000000602082015250565b60006110e760288361107a565b91506110f28261108b565b604082019050919050565b60006020820190508181036000830152611116816110da565b9050919050565b61112681610e16565b811461113157600080fd5b50565b6000815190506111438161111d565b92915050565b60006020828403121561115f5761115e610db8565b5b600061116d84828501611134565b91505092915050565b600081519050919050565b60005b8381101561119f578082015181840152602081019050611184565b60008484015250505050565b6000601f19601f8301169050919050565b60006111c782611176565b6111d1818561107a565b93506111e1818560208601611181565b6111ea816111ab565b840191505092915050565b6000602082019050818103600083015261120f81846111bc565b905092915050565b6000604082019050818103600083015261123181856111bc565b90506112406020830184610e6a565b9392505050565b6000604082019050818103600083015261126181856111bc565b90506112706020830184610e5b565b9392505050565b7f416464726573733a20696e73756666696369656e742062616c616e6365000000600082015250565b60006112ad601d8361107a565b91506112b882611277565b602082019050919050565b600060208201905081810360008301526112dc816112a0565b9050919050565b600081905092915050565b50565b60006112fe6000836112e3565b9150611309826112ee565b600082019050919050565b600061131f826112f1565b9150819050919050565b7f416464726573733a20756e61626c6520746f2073656e642076616c75652c207260008201527f6563697069656e74206d61792068617665207265766572746564000000000000602082015250565b6000611385603a8361107a565b915061139082611329565b604082019050919050565b600060208201905081810360008301526113b481611378565b905091905056fea26469706673582212206d8baf8103d1699622734983970b16c47afe7711baf278f0e6cbf4950e58453464736f6c63430008110033a2646970667358221220cc161811f8f25049aebaf96882c02bd61f2f4ed4152b250e3cdbfe46f3d7eabf64736f6c63430008110033",
  "linkReferences": {},
  "deployedLinkReferences": {}
}