{
  "_format": "hh-sol-artifact-1",
  "contractName": "Distributor",
  "sourceName": "contracts/Distributor.sol",
  "abi": [
    {
      "anonymous": false,
      "inputs": [
        {
          "indexed": true,
          "internalType": "address",
          "name": "sender",
          "type": "address"
        },
        {
          "indexed": true,
          "internalType": "string",
          "name": "id",
          "type": "string"
        }
      ],
      "name": "ethDistributed",
      "type": "event"
    },
    {
      "anonymous": false,
      "inputs": [
        {
          "indexed": true,
          "internalType": "address",
          "name": "sender",
          "type": "address"
        },
        {
          "indexed": true,
          "internalType": "address",
          "name": "token",
          "type": "address"
        },
        {
          "indexed": true,
          "internalType": "string",
          "name": "id",
          "type": "string"
        }
      ],
      "name": "tokenDistributed",
      "type": "event"
    },
    {
      "anonymous": false,
      "inputs": [
        {
          "indexed": true,
          "internalType": "address",
          "name": "sender",
          "type": "address"
        },
        {
          "indexed": false,
          "internalType": "address[]",
          "name": "tokens",
          "type": "address[]"
        }
      ],
      "name": "tokensApproved",
      "type": "event"
    },
    {
      "anonymous": false,
      "inputs": [
        {
          "indexed": true,
          "internalType": "address",
          "name": "sender",
          "type": "address"
        },
        {
          "indexed": true,
          "internalType": "string",
          "name": "id",
          "type": "string"
        }
      ],
      "name": "tokensDistributed",
      "type": "event"
    },
    {
      "inputs": [
        {
          "internalType": "address[]",
          "name": "tokens",
          "type": "address[]"
        }
      ],
      "name": "approveTokens",
      "outputs": [],
      "stateMutability": "nonpayable",
      "type": "function"
    },
    {
      "inputs": [
        {
          "internalType": "address[]",
          "name": "recipients",
          "type": "address[]"
        },
        {
          "internalType": "uint256[]",
          "name": "values",
          "type": "uint256[]"
        },
        {
          "internalType": "string",
          "name": "id",
          "type": "string"
        }
      ],
      "name": "distributeEther",
      "outputs": [],
      "stateMutability": "payable",
      "type": "function"
    },
    {
      "inputs": [
        {
          "internalType": "address",
          "name": "token",
          "type": "address"
        },
        {
          "internalType": "address[]",
          "name": "recipients",
          "type": "address[]"
        },
        {
          "internalType": "uint256[]",
          "name": "values",
          "type": "uint256[]"
        },
        {
          "internalType": "string",
          "name": "id",
          "type": "string"
        }
      ],
      "name": "distributeToken",
      "outputs": [],
      "stateMutability": "nonpayable",
      "type": "function"
    },
    {
      "inputs": [
        {
          "internalType": "address[]",
          "name": "tokens",
          "type": "address[]"
        },
        {
          "internalType": "address[]",
          "name": "recipients",
          "type": "address[]"
        },
        {
          "internalType": "uint256[]",
          "name": "values",
          "type": "uint256[]"
        },
        {
          "internalType": "string",
          "name": "id",
          "type": "string"
        }
      ],
      "name": "distributeTokens",
      "outputs": [],
      "stateMutability": "nonpayable",
      "type": "function"
    },
    {
      "inputs": [
        {
          "internalType": "address[]",
          "name": "tokens",
          "type": "address[]"
        },
        {
          "internalType": "uint256[]",
          "name": "values",
          "type": "uint256[]"
        }
      ],
      "name": "pendingApprovals",
      "outputs": [
        {
          "internalType": "bool[]",
          "name": "",
          "type": "bool[]"
        }
      ],
      "stateMutability": "view",
      "type": "function"
    }
  ],
  "bytecode": "0x608060405234801561001057600080fd5b50611382806100206000396000f3fe60806040526004361061004a5760003560e01c8063104d4ff61461004f5780631e28e11814610071578063704f839d146100845780638f3ce647146100a4578063ac43070b146100da575b600080fd5b34801561005b57600080fd5b5061006f61006a366004610f7e565b6100fa565b005b61006f61007f36600461102c565b610336565b34801561009057600080fd5b5061006f61009f366004610eae565b610566565b3480156100b057600080fd5b506100c46100bf366004610fcb565b61075c565b6040516100d19190611151565b60405180910390f35b3480156100e657600080fd5b5061006f6100f5366004610f43565b610935565b81518351146101245760405162461bcd60e51b815260040161011b9061121e565b60405180910390fd5b83518251146101455760405162461bcd60e51b815260040161011b9061121e565b6000805b845181101561023a5760006001600160a01b031685828151811061017d57634e487b7160e01b600052603260045260246000fd5b60200260200101516001600160a01b031614156101ac5760405162461bcd60e51b815260040161011b906111be565b60008482815181106101ce57634e487b7160e01b600052603260045260246000fd5b6020026020010151116101f35760405162461bcd60e51b815260040161011b906111e7565b83818151811061021357634e487b7160e01b600052603260045260246000fd5b60200260200101518261022691906112aa565b91508061023281611305565b915050610149565b5060005b84518110156102ee576102dc3386838151811061026b57634e487b7160e01b600052603260045260246000fd5b602002602001015186848151811061029357634e487b7160e01b600052603260045260246000fd5b60200260200101518985815181106102bb57634e487b7160e01b600052603260045260246000fd5b60200260200101516001600160a01b0316610a49909392919063ffffffff16565b806102e681611305565b91505061023e565b50816040516102fd91906110e8565b6040519081900381209033907fa3bd5ae9042f05209a592c344252431a42ad10bebba00f92605cdd6b636066b590600090a35050505050565b81518351146103575760405162461bcd60e51b815260040161011b9061121e565b6000805b845181101561044c5760006001600160a01b031685828151811061038f57634e487b7160e01b600052603260045260246000fd5b60200260200101516001600160a01b031614156103be5760405162461bcd60e51b815260040161011b906111be565b60008482815181106103e057634e487b7160e01b600052603260045260246000fd5b6020026020010151116104055760405162461bcd60e51b815260040161011b906111e7565b83818151811061042557634e487b7160e01b600052603260045260246000fd5b60200260200101518261043891906112aa565b91508061044481611305565b91505061035b565b508034101561048e5760405162461bcd60e51b815260206004820152600e60248201526d09c9ea8be8a9c9eaa8e90be8aa8960931b604482015260640161011b565b60005b8451811015610504576104f28582815181106104bd57634e487b7160e01b600052603260045260246000fd5b60200260200101518583815181106104e557634e487b7160e01b600052603260045260246000fd5b6020026020010151610aa9565b806104fc81611305565b915050610491565b5080341115610520576105203361051b83346112c2565b610aa9565b8160405161052e91906110e8565b6040519081900381209033907ff527438fb979e0ba62a56f4755c3a82812db2fa9d396a91c3b3b475da83f358690600090a350505050565b81518351146105875760405162461bcd60e51b815260040161011b9061121e565b6000805b845181101561067c5760006001600160a01b03168582815181106105bf57634e487b7160e01b600052603260045260246000fd5b60200260200101516001600160a01b031614156105ee5760405162461bcd60e51b815260040161011b906111be565b600084828151811061061057634e487b7160e01b600052603260045260246000fd5b6020026020010151116106355760405162461bcd60e51b815260040161011b906111e7565b83818151811061065557634e487b7160e01b600052603260045260246000fd5b60200260200101518261066891906112aa565b91508061067481611305565b91505061058b565b5060005b8451811015610709576106f7338683815181106106ad57634e487b7160e01b600052603260045260246000fd5b60200260200101518684815181106106d557634e487b7160e01b600052603260045260246000fd5b6020026020010151896001600160a01b0316610a49909392919063ffffffff16565b8061070181611305565b915050610680565b508160405161071891906110e8565b604051908190038120906001600160a01b0387169033907f3e6791fcf03b705d16dfa02f4e8e3e74a92b6c937ee2a56b719a7696948ba4ce90600090a45050505050565b606081518351146107af5760405162461bcd60e51b815260206004820152601760248201527f415050524f56455f4c454e4754485f4d49534d41544348000000000000000000604482015260640161011b565b6000835167ffffffffffffffff8111156107d957634e487b7160e01b600052604160045260246000fd5b604051908082528060200260200182016040528015610802578160200160208202803683370190505b50905060005b845181101561092d5783818151811061083157634e487b7160e01b600052603260045260246000fd5b602002602001015185828151811061085957634e487b7160e01b600052603260045260246000fd5b6020908102919091010151604051636eb1769f60e11b81523360048201523060248201526001600160a01b039091169063dd62ed3e9060440160206040518083038186803b1580156108aa57600080fd5b505afa1580156108be573d6000803e3d6000fd5b505050506040513d601f19601f820116820180604052508101906108e291906110d0565b101561091b57600082828151811061090a57634e487b7160e01b600052603260045260246000fd5b911515602092830291909101909101525b8061092581611305565b915050610808565b509392505050565b60001960005b8251811015610a035782818151811061096457634e487b7160e01b600052603260045260246000fd5b602090810291909101015160405163095ea7b360e01b8152306004820152602481018490526001600160a01b039091169063095ea7b390604401602060405180830381600087803b1580156109b857600080fd5b505af11580156109cc573d6000803e3d6000fd5b505050506040513d601f19601f820116820180604052508101906109f091906110b0565b50806109fb81611305565b91505061093b565b50336001600160a01b03167f50ed0fdc9736df8cbe41d43dc5547fc3e9c92000d29c924bef2f4d4abcfd43a983604051610a3d9190611104565b60405180910390a25050565b604080516001600160a01b0385811660248301528416604482015260648082018490528251808303909101815260849091019091526020810180516001600160e01b03166323b872dd60e01b179052610aa3908590610aff565b50505050565b600080600080600085875af1905080610afa5760405162461bcd60e51b815260206004820152601360248201527211551217d514905394d1915497d19052531151606a1b604482015260640161011b565b505050565b6000610b54826040518060400160405280602081526020017f5361666545524332303a206c6f772d6c6576656c2063616c6c206661696c6564815250856001600160a01b0316610bd19092919063ffffffff16565b805190915015610afa5780806020019051810190610b7291906110b0565b610afa5760405162461bcd60e51b815260206004820152602a60248201527f5361666545524332303a204552433230206f7065726174696f6e20646964206e6044820152691bdd081cdd58d8d9595960b21b606482015260840161011b565b6060610be08484600085610bea565b90505b9392505050565b606082471015610c4b5760405162461bcd60e51b815260206004820152602660248201527f416464726573733a20696e73756666696369656e742062616c616e636520666f6044820152651c8818d85b1b60d21b606482015260840161011b565b6001600160a01b0385163b610ca25760405162461bcd60e51b815260206004820152601d60248201527f416464726573733a2063616c6c20746f206e6f6e2d636f6e7472616374000000604482015260640161011b565b600080866001600160a01b03168587604051610cbe91906110e8565b60006040518083038185875af1925050503d8060008114610cfb576040519150601f19603f3d011682016040523d82523d6000602084013e610d00565b606091505b5091509150610d10828286610d1b565b979650505050505050565b60608315610d2a575081610be3565b825115610d3a5782518084602001fd5b8160405162461bcd60e51b815260040161011b919061118b565b80356001600160a01b0381168114610d6b57600080fd5b919050565b600082601f830112610d80578081fd5b81356020610d95610d9083611286565b611255565b80838252828201915082860187848660051b8901011115610db4578586fd5b855b85811015610dd957610dc782610d54565b84529284019290840190600101610db6565b5090979650505050505050565b600082601f830112610df6578081fd5b81356020610e06610d9083611286565b80838252828201915082860187848660051b8901011115610e25578586fd5b855b85811015610dd957813584529284019290840190600101610e27565b600082601f830112610e53578081fd5b813567ffffffffffffffff811115610e6d57610e6d611336565b610e80601f8201601f1916602001611255565b818152846020838601011115610e94578283fd5b816020850160208301379081016020019190915292915050565b60008060008060808587031215610ec3578384fd5b610ecc85610d54565b9350602085013567ffffffffffffffff80821115610ee8578485fd5b610ef488838901610d70565b94506040870135915080821115610f09578384fd5b610f1588838901610de6565b93506060870135915080821115610f2a578283fd5b50610f3787828801610e43565b91505092959194509250565b600060208284031215610f54578081fd5b813567ffffffffffffffff811115610f6a578182fd5b610f7684828501610d70565b949350505050565b60008060008060808587031215610f93578384fd5b843567ffffffffffffffff80821115610faa578586fd5b610fb688838901610d70565b95506020870135915080821115610ee8578485fd5b60008060408385031215610fdd578182fd5b823567ffffffffffffffff80821115610ff4578384fd5b61100086838701610d70565b93506020850135915080821115611015578283fd5b5061102285828601610de6565b9150509250929050565b600080600060608486031215611040578283fd5b833567ffffffffffffffff80821115611057578485fd5b61106387838801610d70565b94506020860135915080821115611078578384fd5b61108487838801610de6565b93506040860135915080821115611099578283fd5b506110a686828701610e43565b9150509250925092565b6000602082840312156110c1578081fd5b81518015158114610be3578182fd5b6000602082840312156110e1578081fd5b5051919050565b600082516110fa8184602087016112d9565b9190910192915050565b6020808252825182820181905260009190848201906040850190845b818110156111455783516001600160a01b031683529284019291840191600101611120565b50909695505050505050565b6020808252825182820181905260009190848201906040850190845b8181101561114557835115158352928401929184019160010161116d565b60208152600082518060208401526111aa8160408501602087016112d9565b601f01601f19169190910160400192915050565b6020808252600f908201526e494e56414c49445f4144445245535360881b604082015260600190565b6020808252601b908201527f494e56414c49445f5a45524f5f56414c55455f5452414e534645520000000000604082015260600190565b6020808252601a908201527f444953545249425554455f4c454e4754485f4d49534d41544348000000000000604082015260600190565b604051601f8201601f1916810167ffffffffffffffff8111828210171561127e5761127e611336565b604052919050565b600067ffffffffffffffff8211156112a0576112a0611336565b5060051b60200190565b600082198211156112bd576112bd611320565b500190565b6000828210156112d4576112d4611320565b500390565b60005b838110156112f45781810151838201526020016112dc565b83811115610aa35750506000910152565b600060001982141561131957611319611320565b5060010190565b634e487b7160e01b600052601160045260246000fd5b634e487b7160e01b600052604160045260246000fdfea26469706673582212207780d30925d2f7ad6b5d7c1b6a060faa67365dd9fd55e81c3f86eba7f7da6ab164736f6c63430008040033",
  "linkReferences": {},
  "deployedLinkReferences": {}
}