{
  "_format": "hh-sol-artifact-1",
  "contractName": "Distributor",
  "sourceName": "contracts/Distributor.sol",
  "abi": [
    {
      "anonymous": false,
      "inputs": [
        {
          "indexed": true,
          "internalType": "address",
          "name": "sender",
          "type": "address"
        },
        {
          "indexed": true,
          "internalType": "string",
          "name": "id",
          "type": "string"
        }
      ],
      "name": "ethDistributed",
      "type": "event"
    },
    {
      "anonymous": false,
      "inputs": [
        {
          "indexed": true,
          "internalType": "address",
          "name": "sender",
          "type": "address"
        },
        {
          "indexed": true,
          "internalType": "address",
          "name": "token",
          "type": "address"
        },
        {
          "indexed": true,
          "internalType": "string",
          "name": "id",
          "type": "string"
        }
      ],
      "name": "tokenDistributed",
      "type": "event"
    },
    {
      "inputs": [
        {
          "internalType": "address[]",
          "name": "recipients",
          "type": "address[]"
        },
        {
          "internalType": "uint256[]",
          "name": "values",
          "type": "uint256[]"
        },
        {
          "internalType": "string",
          "name": "id",
          "type": "string"
        }
      ],
      "name": "distributeEther",
      "outputs": [],
      "stateMutability": "payable",
      "type": "function"
    },
    {
      "inputs": [
        {
          "internalType": "contract ERC20",
          "name": "token",
          "type": "address"
        },
        {
          "internalType": "address[]",
          "name": "recipients",
          "type": "address[]"
        },
        {
          "internalType": "uint256[]",
          "name": "values",
          "type": "uint256[]"
        },
        {
          "internalType": "string",
          "name": "id",
          "type": "string"
        }
      ],
      "name": "distributeToken",
      "outputs": [],
      "stateMutability": "nonpayable",
      "type": "function"
    }
  ],
  "bytecode": "0x608060405234801561001057600080fd5b50610a70806100206000396000f3fe6080604052600436106100295760003560e01c80631e28e1181461002e578063704f839d14610043575b600080fd5b61004161003c366004610803565b610063565b005b34801561004f57600080fd5b5061004161005e366004610887565b61031a565b81518351146100b95760405162461bcd60e51b815260206004820152601a60248201527f444953545249425554455f4c454e4754485f4d49534d4154434800000000000060448201526064015b60405180910390fd5b6000805b84518110156102005760006001600160a01b03168582815181106100f157634e487b7160e01b600052603260045260246000fd5b60200260200101516001600160a01b031614156101425760405162461bcd60e51b815260206004820152600f60248201526e494e56414c49445f4144445245535360881b60448201526064016100b0565b600084828151811061016457634e487b7160e01b600052603260045260246000fd5b6020026020010151116101b95760405162461bcd60e51b815260206004820152601b60248201527f494e56414c49445f5a45524f5f56414c55455f5452414e53464552000000000060448201526064016100b0565b8381815181106101d957634e487b7160e01b600052603260045260246000fd5b6020026020010151826101ec91906109ac565b9150806101f8816109db565b9150506100bd565b50803410156102425760405162461bcd60e51b815260206004820152600e60248201526d09c9ea8be8a9c9eaa8e90be8aa8960931b60448201526064016100b0565b60005b84518110156102b8576102a685828151811061027157634e487b7160e01b600052603260045260246000fd5b602002602001015185838151811061029957634e487b7160e01b600052603260045260246000fd5b6020026020010151610592565b806102b0816109db565b915050610245565b50803411156102d4576102d4336102cf83346109c4565b610592565b816040516102e2919061091e565b6040519081900381209033907ff527438fb979e0ba62a56f4755c3a82812db2fa9d396a91c3b3b475da83f358690600090a350505050565b815183511461036b5760405162461bcd60e51b815260206004820152601a60248201527f444953545249425554455f4c454e4754485f4d49534d4154434800000000000060448201526064016100b0565b6000805b84518110156104b25760006001600160a01b03168582815181106103a357634e487b7160e01b600052603260045260246000fd5b60200260200101516001600160a01b031614156103f45760405162461bcd60e51b815260206004820152600f60248201526e494e56414c49445f4144445245535360881b60448201526064016100b0565b600084828151811061041657634e487b7160e01b600052603260045260246000fd5b60200260200101511161046b5760405162461bcd60e51b815260206004820152601b60248201527f494e56414c49445f5a45524f5f56414c55455f5452414e53464552000000000060448201526064016100b0565b83818151811061048b57634e487b7160e01b600052603260045260246000fd5b60200260200101518261049e91906109ac565b9150806104aa816109db565b91505061036f565b5060005b845181101561053f5761052d338683815181106104e357634e487b7160e01b600052603260045260246000fd5b602002602001015186848151811061050b57634e487b7160e01b600052603260045260246000fd5b6020026020010151896001600160a01b03166105e8909392919063ffffffff16565b80610537816109db565b9150506104b6565b508160405161054e919061091e565b604051908190038120906001600160a01b0387169033907f3e6791fcf03b705d16dfa02f4e8e3e74a92b6c937ee2a56b719a7696948ba4ce90600090a45050505050565b600080600080600085875af19050806105e35760405162461bcd60e51b815260206004820152601360248201527211551217d514905394d1915497d19052531151606a1b60448201526064016100b0565b505050565b60006040516323b872dd60e01b81526001600160a01b03851660048201526001600160a01b038416602482015282604482015260008060648360008a5af19150506106328161067c565b6106755760405162461bcd60e51b81526020600482015260146024820152731514905394d1915497d19493d357d1905253115160621b60448201526064016100b0565b5050505050565b60003d8261068e57806000803e806000fd5b80602081146106a65780156106b757600092506106bc565b816000803e600051151592506106bc565b600192505b5050919050565b600082601f8301126106d3578081fd5b813560206106e86106e383610988565b610957565b80838252828201915082860187848660051b8901011115610707578586fd5b855b8581101561072e57813561071c81610a22565b84529284019290840190600101610709565b5090979650505050505050565b600082601f83011261074b578081fd5b8135602061075b6106e383610988565b80838252828201915082860187848660051b890101111561077a578586fd5b855b8581101561072e5781358452928401929084019060010161077c565b600082601f8301126107a8578081fd5b813567ffffffffffffffff8111156107c2576107c2610a0c565b6107d5601f8201601f1916602001610957565b8181528460208386010111156107e9578283fd5b816020850160208301379081016020019190915292915050565b600080600060608486031215610817578283fd5b833567ffffffffffffffff8082111561082e578485fd5b61083a878388016106c3565b9450602086013591508082111561084f578384fd5b61085b8783880161073b565b93506040860135915080821115610870578283fd5b5061087d86828701610798565b9150509250925092565b6000806000806080858703121561089c578081fd5b84356108a781610a22565b9350602085013567ffffffffffffffff808211156108c3578283fd5b6108cf888389016106c3565b945060408701359150808211156108e4578283fd5b6108f08883890161073b565b93506060870135915080821115610905578283fd5b5061091287828801610798565b91505092959194509250565b60008251815b8181101561093e5760208186018101518583015201610924565b8181111561094c5782828501525b509190910192915050565b604051601f8201601f1916810167ffffffffffffffff8111828210171561098057610980610a0c565b604052919050565b600067ffffffffffffffff8211156109a2576109a2610a0c565b5060051b60200190565b600082198211156109bf576109bf6109f6565b500190565b6000828210156109d6576109d66109f6565b500390565b60006000198214156109ef576109ef6109f6565b5060010190565b634e487b7160e01b600052601160045260246000fd5b634e487b7160e01b600052604160045260246000fd5b6001600160a01b0381168114610a3757600080fd5b5056fea26469706673582212206c5c7ac512ab5583fc9be05f5d06ebf1f79f1d4756280e206101fa5b092c7b8064736f6c63430008040033",
  "linkReferences": {},
  "deployedLinkReferences": {}
}